:1000000000000220750300005D0300005F03000094
:1000100061030000630300006503000000000000AE
:100020000000000000000000000000006703000066
:1000300069030000000000006B0300006D03000076
:10004000311500006F0300007D1500006F030000F4
:100050006F0300006F0300006F030000A115000094
:100060006F0300006F0300006F0300006F030000C8
:100070006F0300006F0300006F0300006F030000B8
:100080006F0300006F0300006F0300006F030000A8
:100090006F0300006F0300006F0300006F03000098
:1000A0006F0300006F0300006F0300006F03000088
:1000B0006F0300006F03000000000000000000005C
:1000C0006F0300006F0300006F0300006F03000068
:1000D000451A00006F0300006F0300006F0300006B
:1000E0006F0300000000000000000000000000009E
:1000F000000000006F030000000000006F0300001C
:1001000000000000000000000000000000000000EF
:1001100000000000000000000000000000000000DF
:1001200000000000000000000000000000000000CF
:1001300000000000000000000000000000000000BF
:1001400000000000000000000000000000000000AF
:10015000000000000000000000000000000000009F
:10016000000000000000000000000000000000008F
:10017000000000000000000000000000000000007F
:10018000000000000000000000000000000000006F
:10019000000000000000000000000000000000005F
:1001A000000000000000000000000000000000004F
:1001B000000000000000000000000000000000003F
:1001C000000000000000000000000000000000002F
:1001D000000000000000000000000000000000001F
:1001E000000000000000000000000000000000000F
:1001F00000000000000000000000000000000000FF
:10020000354936480A1A02D0072291438D463449AF
:1002100034480A1A06D00722914381F30988022242
:1002200082F3148830483149314A00F044F83148AB
:100230003149324A00F03FF831483249324A00F041
:100240003AF832483249334A00F035F832483349F7
:10025000334A00F030F833483349344A00F02BF881
:1002600033483449344A00F026F8344834490022EF
:1002700000F02CF833483449002200F027F83348C6
:100280003349091A082902DB002202604160314A21
:1002900090471F481F49884205D00268043003B4C4
:1002A000904703BCF7E700208646EC46002000217B
:1002B000294A9047FEE7884207D0521A05D00378B2
:1002C00001300B700131013AF9D17047884202D0F8
:1002D00002700130FAE770470000022000E00120C0
:1002E0000000022000000220C02C000000000020BE
:1002F00020000020D0030000D00300008C25000067
:10030000C02C00000000002000000020002600009B
:100310000026000000260000002600000026000045
:10032000002600000026000000260000C02C00006F
:10033000E02C0000200000202000002020000020F1
:1003400008090020080900200809002008090020E9
:10035000082900209D030000291B0000FEE7FEE79E
:10036000FEE7FEE7FEE7FEE7FEE7FEE7FEE7FEE765
:1003700000F002B8FFF7FCBF0F484FF007018843B9
:1003800085460E4880470E48016841F470010160BF
:10039000BFF34F8FBFF36F8FFFF732BF09480A4992
:1003A0000A4A884207D0521A05D0037801300B70F0
:1003B0000131013AF9D170470000022055220000B6
:1003C00088ED00E000260000000000200000002072
:1003D0007047000007B5044B0093044A402300F027
:1003E00032F803B05DF804FBF103000021000020A7
:1003F0002DE9F84388461446B2B10F4B0F4E032542
:10040000002743F00109224608EB0701002001F014
:10041000DDFE0744241A48B933782BB14FF47A40F3
:10042000C847013D02D13570BDE8F8830123337020
:10043000002CE8D1F8E700BF0026000020000020D3
:10044000704701F0F3BEF0B595B01D46164608465C
:100450000C4600F05BFF1A9B0D93CDE90865002563
:100460002B46082205A920460A958DF82C500C959C
:1004700000F068FF079B0293069B03939DF81430DE
:100480008DF8115003F00302012A1DD1BDF814208C
:10049000059DC3F3C203C2F383168DF81030B2007A
:1004A00008230EA9204600F04DFFC5F3952508ABA3
:1004B0000093324602AB0EA9284600F029FB2046E5
:1004C00000F028FF15B0F0BD022AF8D1BDF8165093
:1004D000C3F3C203C5F389158DF810300827082D22
:1004E0002E4628BF08263B4632460EA9204600F07D
:1004F00029FFAD1B08AB02AA31460EA8374400F015
:100500006BFB002DEBD1DAE708B5FFF79AFF044843
:10051000042100F067FA034B01225A7108BD00BFA5
:10052000DC25000000000020037813F0040216D040
:1005300003F00303012B03D0022B09D001207047E5
:100540000A6800880232C0F3831002440A60F5E7AB
:100550000B684288023303EB92130B60EEE7104600
:10056000704700002DE9F04FDFF810A10F4685B06D
:100570000446861C0020154600F0E0FBDAF8042053
:100580003A60DAF8083003F580739B1A0AF21C47C8
:100590000AF583690AF21448B34219D30020002DEA
:1005A00068D004F00F039B0143F0050363F30F00D1
:1005B000DAF80430DAB2033233444AF82200002079
:1005C000CAF8043000F0BCFB012005B0BDE8F08F94
:1005D0000121384600F0D9FB484600F0EEFB4046CA
:1005E00000F0EBFBDAF808000090C0B203300AEB31
:1005F00080006946FFF798FF009B30BBDAB20AEB38
:100600008202D16801919A1C0133DBB20AEB8303A9
:100610000092D3F80CB001F00303012B22D0022B7F
:1006200015D08346404600F0CBFB10B1009BCAF8C2
:1006300008305946384600F0A8FBDAF80830DAF8F6
:10064000042003F580739B1AA6E7D8B2CEE7BDF865
:100650000630C3F3891303334FEA1B4B02EB9303BA
:100660000093DFE7BDF80430C3F383134FEA1B4B5D
:100670001344F5E7A40544F0060099E7340100208F
:10068000064B074810B500221A7000F0F8FD04462A
:1006900010B9044800F090FE204610BD340100203F
:1006A000EC2500003C26000030B50A4C71B10A4A26
:1006B0000A49121BD20800239A4201D1002030BD02
:1006C00031F82350854202D00133F5E7034654F850
:1006D0003300F4E78C250000DC250000000000203A
:1006E000094B013903EBC000032909D8DFE801F009
:1006F0000A02040604207047007970474079704769
:1007000000207047022070478C25000070470000D1
:10071000034BD3E90130C31A58425841704700BF18
:10072000340100202DE9FF41FFF7F2FF05460028C4
:1007300040F0E980754CC4F81804BFF34F8FA368EC
:100740000093DBB2033304EB83006946FFF7ECFE52
:10075000009B18B1D4F81824002A5AD0DAB2991C98
:10076000013304EB8202DBB204EB8303D268DB6863
:10077000029302F00303022B0192009154D1BDF8C1
:1007800006306348C3F38917502F3E4628BF5026D2
:1007900006F1080166F38F13C1F30901ADF80630C5
:1007A00000F085FD0546002800F0988000F0AEFDC1
:1007B0000023082201A9284600F0BAFD0099CB4386
:1007C000DBB20133C9B20331B6EB830F4FEA8302C8
:1007D00004EB810125D95FFA82F80823A6EB08060D
:1007E000284600F0A5FDF6B208F10803494903F0D8
:1007F000FC033246284600F09BFD009B033703EBC9
:1008000097070097D4F81834002B43D1D4F810641C
:1008100053E062689A4294D8A260284604B0BDE8CA
:10082000F08108233246E5E7012B57D1BDF80430AB
:100830003748C3F38311062928BF062161F38913C2
:10084000023101F00F018900ADF8043000F02FFDF6
:100850000546002842D000F059FD0023082201A9D6
:10086000284600F065FD0026BDF80420C2F383127F
:10087000B300964203F10803C4D200994A1CC9B2DE
:100880000331009204EB81010422284600F050FD60
:100890000136E9E7284600F03DFDFFF739FF80F01B
:1008A0000100C5B2B9E7F3685B7923B13368294623
:1008B0001B6830469847F3681E68002EF3D128461F
:1008C00000F028FD304600F039FAD4F818340BB99E
:1008D000009BA360002000F033FADEE7D4F8104458
:1008E00054B90D4B0D480E49C01AC008000440F021
:1008F000020000F05FF8D0E7236820469B68984725
:10090000E3681C68ECE7002587E700BF340100209E
:10091000EC250000400100208C250000C4250000CB
:10092000242600002DE9F34704460E46924601A90D
:10093000012218469946FFF715FE1C4F10B3019D82
:100940004FF00008AA1CC84508EB020125D1184841
:10095000002100F0F7F980F31000000440EA144091
:10096000E4006B1C04F03804DBB2EDB244F0010487
:1009700007EB8303033544EA881444EA8624D860ED
:1009800047F825403B781BB1FFF7CCFE0028FBD190
:10099000FFF7BCFE02B0BDE8F087C9B207EB8101EA
:1009A0005AF82830CB6008F10108CCE73401002068
:1009B0005005002000231A46FFF7B4BF07B50123F6
:1009C000019201AAFFF7AEFF03B05DF804FB07B583
:1009D000CDE9002302236A46FFF7A4FF03B05DF8C8
:1009E00004FB000030B50F4CD4F81024034600205F
:1009F000114631B9D96808714AB9C4F810340A608F
:100A000030BDC9680D79854206D00968F1E7D26822
:100A100014680C601360F3E701300A28E8D14FF046
:100A2000FF30EDE73401002038B5084B0125D3F83D
:100A300010441D7004B938BDE3685D712368204619
:100A40005B689847E3681C68F4E700BF3401002046
:100A500030B5C38885B004460D4633B1144A0092C0
:100A60001449154A284600F005FA217A05291DD0B7
:100A7000637A4BB1A088FFF733FE104B104953F84F
:100A80002020284600F0F6F9227A0E4BA08853F871
:100A9000222003920021FFF707FE039A0A4903462A
:100AA000284605B0BDE8304000F0E4B905B030BDDF
:100AB000682600005026000048260000D4260000CA
:100AC0006D260000F82600007026000007B50346DA
:100AD0000846197A052911D05B7A2BB1094A0A49CF
:100AE000019000F0C7F901980849019000F0C2F99F
:100AF000019803B05DF804EB00F0B1B9002AF8D01A
:100B0000F2E700BF682600006D26000065260000A1
:100B10002DE9F04385B01F460C9D002395F80C90FD
:100B20002B7306460C46904629463846FFF790FF41
:100B3000B8F1060F09D8DFE808F00412181F2833AF
:100B400040003146284600F095F9002229463846F3
:100B5000FFF7BCFF85F80C9005B0BDE8F083226874
:100B60003146284600F086F9EFE7D4E90023314604
:100B7000284600F07FF9E8E7A36800933146D4E9FE
:100B80000023284600F076F9DFE7E3680193A368C5
:100B900000933146D4E90023284600F06BF9D4E7EE
:100BA00023690293E3680193A36800933146D4E973
:100BB0000023284600F05EF9C7E7636903932369C1
:100BC0000293E3680193A36800933146D4E90023BC
:100BD000284600F04FF9B8E708292DE9F74F80467D
:100BE0000E4617461C463CD8002593F80C901D7302
:100BF00019461046FFF72CFFDFF888A0DFF888B011
:100C0000AE4231D918F805205946204600F032F995
:100C10000135082DF4D11949194DDFF870A020468F
:100C200000F028F94FF0000B5E4522D918F80B2090
:100C30007E2A05D81046019201F028FC019A00B9DD
:100C40002E225146204600F015F90BF1010BBBF1A5
:100C5000080FE9D1012221463846FFF737FF84F813
:100C60000C9003B0BDE8F08F5146204600F002F929
:100C7000CEE72946204600F0FDF8E6E7842600008E
:100C800082260000802600007A26000086260000CA
:100C90001FB50021039001AA44F20100CDE9011122
:100CA00000F004F805B05DF804FB000038B572B63A
:100CB000FFF7BAFEFFF736FD0028FBD1104B114CB1
:100CC000114D1249E41AE408240444F00100FFF72E
:100CD00071FED5F8F030DB0700D500BE0C4944F0BA
:100CE0000200FFF767FEBFF34F8FEA68094B02F47B
:100CF000E0621343EB60BFF34F8F00BFFDE700BF1F
:100D00008C250000C425000000ED00E00C27000049
:100D1000182700000400FA0572B6024A136801336E
:100D200013607047EC050020034A1368013B136011
:100D300003B962B6704700BFEC050020FFF7ECBFB7
:100D4000FFF7F2BF10B5034653E8000F0A4643E829
:100D5000002494F0000FF7D110BD10B5034653E8FE
:100D6000002F42EA010043E8000494F0000FF6D19E
:100D700010BD10B5034653E8000F00EA010243E836
:100D8000002494F0000FF6D110BD10B5034653E8CF
:100D9000002F02EB010043E8000494F0000FF6D1AD
:100DA00010BD10B5034653E8002FA2EB010043E845
:100DB000000494F0000FF6D110BD0121FFF7CDBF64
:100DC0000021FFF7D6BF10B590B1D0E9012301682B
:100DD0009B1ADBB20A60013BDBB2FF2B026802D137
:100DE0000020107110BD11684C1C14600B70F2E7EC
:100DF0000E20F7E738B504460020FFF79FFF226872
:100E000063681168994213D9481E106011F8013CBB
:100E1000E568218A01FB0355A36811791B1ADBB22F
:100E2000994200D213710020FFF78AFF284638BD8F
:100E30000025F8E738B5054600200C46FFF77EFF91
:100E40002A681368591C1160E968641A298AB4FB7E
:100E5000F1F41C70BDE838400020FFF771BF8268D4
:100E600010B504462AB14369016800699847002318
:100E7000A36010BD0EB403B5039921B104AB01AA60
:100E8000019300F06FF802B05DF804EB03B0704717
:100E9000826830B40468551C8560A154D0E90132E1
:100EA0009A4202D330BCFFF7DABF30BC7047000073
:100EB0002DE9F84F9846DDE90A43154682460F466C
:100EC0000A464FF00109AA420FD2C14538BFC146B8
:100ED00013F0010B01D16CB900240126B8F1010F08
:100EE0001BD908F1FF386E43F8E709F10109B2FB9D
:100EF000F5F2E8E79B070ED5B8F1000F0CBF3026DE
:100F00002026A145E9D2013C31465046FFF7C0FFFB
:100F1000002CF6D1E0E72026F3E7B7FBF6F39D427D
:100F2000E1D9DFF83C80B7FBF6F3504618F8031020
:100F300006FB1377FFF7ACFF3346AB42B6FBF5F683
:100F4000F1D2BBF1000F02D00CB1A14501D3BDE835
:100F5000F88F20215046013CFFF79AFFF4E700BFCD
:100F6000252700002DE9F74F05461746884600293A
:100F700000F03E8118F8011B49B92B7B002B00F0D3
:100F80003781284603B0BDE8F04FFFF768BF252939
:100F900040F0B780002698F800302D2B424608F12B
:100FA000010823D0302B24D02B2B25D000242A2B32
:100FB00002F1010123D13B681A1D1B683A601C44F1
:100FC0000A4613782E2B26D101324FF0000A104624
:100FD00010F8011BA1F1300CBCF1090F1DD80A2338
:100FE00003FB0A13A3F1300A0246F0E746F00106BC
:100FF000D1E746F00206CEE746F00406CBE711F84B
:10100000013CA3F130000928DBD80A2202FB04349A
:10101000303C0A46CBE74FF0000A12F8011B01F002
:10102000FB0068289046F8D0782909D86F290CD899
:10103000632962D022D8252963D0582900F08880FE
:1010400098F80030002B95D197E770390829F7D828
:1010500001A353F821F000BFCB11000041100000A4
:101060004110000061110000411000003F1100001C
:10107000411000004110000051110000642901D00E
:101080006929DDD13A68D2F80090111D89EAE97228
:101090003960A2EBE9724FF0010B092A35DCD34528
:1010A00038BFD3462CB1B9F1000F01DB720700D570
:1010B000013CB30702D5BAF1000F03D0F00701D409
:1010C0004CBB0024B9F1000F2DDAC9F100092D2124
:1010D0002846FFF7DDFE06F00302022A04D1BAF12A
:1010E000000F01D11CBB0024CDE9004653460A2263
:1010F00049462846FFF7DCFEA2E73B681A1D19782F
:101100003A602846FFF7C4FE9AE70A230BF1010B69
:10111000B2FBF3F2C1E7A345D4D220212846013C1B
:10112000FFF7B6FECCE77107D5D52B21D0E7A34555
:10113000DAD230212846013CFFF7AAFED2E739680F
:10114000CDE900460A1D3A6053460A220968D0E7F5
:1011500039680A1D3A60CDE9004653461022F5E78A
:101160003B681A1D3A6016F00106D3F8009024D1AE
:10117000B9F1000F03D0484601F0D8F90646B44251
:101180001DD809F1FF3919F8011F00293FF458AFA4
:101190002846FFF77DFEF6E728460136FFF778FE82
:1011A00019F806100029F7D1A642BFF449AF202153
:1011B0002846013CFFF76CFEF6E70026F0E7202109
:1011C0002846013CFFF764FED9E73B681A1D3A60E8
:1011D000302128461C68FFF75BFE78212846FFF780
:1011E00057FE00220823CDE900322146102280E775
:1011F00003B0BDE8F08F00BF2DE9F84FB0F806A0AE
:101200004579D2F800B09DF828900AFB05F5043D19
:1012100088460BEB0301A94203F1040488BFA5EB48
:10122000030BB4FBFAF607460AFB1644C2F800B0FB
:101230004EB9AAEB04055D4528BF5D46BBF1000F22
:1012400004D1BDE8F88F3F68013EF1E7043408EBB4
:1012500006003C442A46B9F1000F0DD02146ABEB05
:10126000050B01F018F9DA452E443F6855464FF05A
:10127000000428BF5D46E1E701462046EFE7FFF79F
:10128000A2BDF8B546790146721E05460023934279
:101290002D6803D30024A64202D8F8BD0133F6E737
:1012A0000F682846FFF7C6FD01343946F3E72DE9FC
:1012B000F843068ACD1C0746FFF79CFD043E3544E3
:1012C0000446B5FBF6F5F0B14FF48073EDB28380C0
:1012D000C680013D076081464FF00008A84512D244
:1012E0003846FFF787FD064648B1637901336371DD
:1012F00008F10108C9F8000007608146EEE72046C2
:10130000FFF7BFFF34462046BDE8F88301210430D3
:10131000FFF73BBD10B5012104460430FFF741FD46
:10132000C0B220B92046BDE81040FFF7AABF10BDEB
:101330001FB503920022009203AAFFF75DFF05B0DC
:101340005DF804FB1FB503920122009203AAFFF788
:1013500053FF05B05DF804FB064B10B500241C706C
:10136000054B1C60BFF35F8F0449054800F02DF862
:10137000204610BDF8050020FC0500204027000095
:10138000F005002008B50020FFF7D8FCF1EE103A78
:1013900023F09F03E1EE103ABFF35F8F054B40222D
:1013A000C3F884210020FFF7CBFC20BF40BF20BF43
:1013B00008BD00BF00E100E0836800225A60C3E975
:1013C00004229A60DA601A6070470B684A684360CA
:1013D000934208BF0023016008BF436070470000CC
:1013E00038B5074C051E04F1080318BF1C462368D6
:1013F0002BB11A6822605B6828469847F7E738BD2A
:101400000806002020B9054B01225A70FFF7E8BFFB
:10141000012802D1014A9070F8E7704700060020C9
:1014200038B50C4C23789BB90B486360A3602361EB
:10143000E36000F051F8054600F05AF801232370EC
:10144000064BD3F800340BB10123A370284638BDF6
:101450008525F5E700060020051400000000014086
:1014600038B5134CA378054603F0FF0073B115B1EE
:101470006B68012098470020FFF760FCE3680133A8
:10148000E3600020BDE83840FFF75ABCFFF756FC88
:1014900025B1226913463BB92A602561E368002B18
:1014A000ECD100F037F8E9E79D42F7D01B68F2E78E
:1014B000000600204FF08043D3F81804C0F300402A
:1014C000704700F18040002382B0036003680193FD
:1014D000019B02B070470000044A137923B901212F
:1014E000106011711846704785207047140600205F
:1014F000074B1A68D20704D4C02283F800230122C4
:101500001A604FF080430122C3F81825704700BFCE
:1015100000E100E008B54FF48270FFF7D2FF4FF012
:1015200080430222C3F8042301229A6008BD000010
:101530004FF0804210B5D2F8003153B14FF48070B3
:10154000FFF7BFFF0123C2F808330B4B00201B68D5
:1015500098474FF08042D2F8043163B14FF4827063
:10156000FFF7AFFF0223C2F80833034BBDE810407A
:101570001B680120184710BD14060020014B1B6892
:10158000184700BF1C06002000F1804000F5E04035
:10159000002382B0036003680193019B02B070478F
:1015A000F0B5524B524CD3F8043185B0002B3DD0EE
:1015B00094F82E204FF48270FFF7E6FF2AB394F8D8
:1015C0002F3013BB494AD2F80031002B32D04FF4F0
:1015D0008070FFF7D9FF638B94F82D00834250D9B8
:1015E00021891B1A9BB289B26383CB1A616801EB14
:1015F0004303C2F82C36C2F830064FF48270FFF76E
:10160000C3FF3A4B01225A6014E0636802932389B6
:10161000ADF80C30E36800218DF8041033BB23745F
:10162000236801A89847002384F82F3094F82E30BF
:10163000002BC7D12D4BD3F810315BB14FF488701C
:10164000FFF7A2FF0023237402238DF8043001A8C2
:1016500023689847254BD3F81431EBB14FF48A70C7
:10166000FFF792FF0023237405B0F0BD208B608349
:1016700063602081E160002AD2D11C4B01221A60F4
:10168000CEE7BAD1E368012184F82F1013B100210D
:101690006183AEE76383B0E766694FF000470125D9
:1016A000002EE1D0B6FA86F227FA02F34632920013
:1016B00026EA030602F1804303F5E0431B68002B92
:1016C000EED01046A2F58C72FFF75EFFD30882F0D1
:1016D0000402C2F380028DF808308DF804502368AC
:1016E0008DF8092001A89847DAE700BF0070004094
:1016F0002406002038B5204A92F82C300446002BEE
:1017000037D111601D490078C1F8F0056078C1F843
:10171000F4050125E078137482F82D30536182F8C6
:101720002F306FF0004382F82E0082F82C504FF4D7
:101730008270C1F80833FFF727FF4FF48070FFF77E
:1017400023FF4FF48A70FFF71FFFA3780C485B015B
:10175000DBB280F80733802303600223C1F804332F
:1017600092F82E300BB1C1F80453C1F80055002097
:1017700038BD0820FCE700BF2406002000700040B0
:1017800000E100E030B5224B1A7C002A3ED100F186
:101790000C0403EB4402127922B993F82D20013294
:1017A00083F82D2003EB4403CA790C7A8D781A71E3
:1017B0005C714B782D021B0105F4E06503F03003EA
:1017C0002B430D7805F003052B43CD782D0305F44D
:1017D00080552B430D792D0405F4E0252B434D79DD
:1017E00089792D0505F48015090601F080712B43D8
:1017F0000B43010101F1804101F5E0410020C1F8F6
:101800001835C1F81445C1F8102530BD1120FCE78A
:101810002406002070B5324A147C04F0FF03002C2B
:101820005CD1304C012503261574C4F80863C4F854
:101830002C16C4F8305692F82D40AC420CD91D46F7
:10184000190101F1804101F5E0410133082BC1F894
:101850001455C1F81055F3D100F10C03000102EB4F
:10186000430300F1804000F5E04019795B79C0F84E
:101870001435C0F810151B4901230B604B6042F270
:101880001073D1F8040108B9013BFAD14FF480700C
:10189000FFF77AFE4FF48270FFF776FE012C11D924
:1018A0000F4800210B0103F1804303F5E0430131B0
:1018B000047F457FC3F814550829C3F8104500F18B
:1018C0000200EFD192F82E10064B29B1032100201F
:1018D000C3F80413107470BD0221F8E71120FAE771
:1018E000240600200070004008B50A4B197C01F066
:1018F000FF0269B902214FF488701974FFF744FEA2
:10190000054B1021C3F804130121D960104608BD0E
:101910001120FCE724060020007000400023435003
:1019200082B043580193019B02B07047F0B51A4C46
:1019300043791A4D44F8232003EB4303EB5C43BB8C
:1019400090F904408B7802795B01002CDBB21BDB41
:10195000134E371987F800330123640902F01F0280
:1019600003FA02F246F8242003680A88C3F808251F
:1019700043790879C97803EB4303EA1850709170F2
:101980000122EA540020F0BD064C02F00F02A354DD
:10199000EAE70820F7E700BF5806002054060020B9
:1019A00000E100E014ED00E0036801221A604379D1
:1019B000024A03EB43030221D1547047540600202E
:1019C0002DE9F04105464FF4803400681C4F8C40EF
:1019D000C0F84843C0F8084395F805C00CEB4C0626
:1019E0003E4422F07F4296F8018001F5A8764FEA46
:1019F0004C0E40F82620B8F1000F11D0D0F8048525
:101A0000F4446744A8EB0206904538BF06F1FF1680
:101A1000BA7838BF06F57F46B24201DD0D200CE0F2
:101A20003BB15031890089B2FFF778FF2B68C3F8CA
:101A300004432B680020C3F84443BDE8F08100BF95
:101A4000540600202DE9F041224E234FDFF88C8010
:101A500000244FF48035D7F80433A6F580412B429B
:101A600089B20CD0336853B1C7F848533846C7F829
:101A70000853FFF753FFD8F80030E0B2984701341D
:101A8000042C4FEA450506F10406E4D11248D0F8CB
:101A90000433DA070AD5D0F800313BB14FF4807136
:101AA000FFF73CFF0D4B20461B6898470A48D0F8CB
:101AB00004339B070CD5D0F804314BB14FF482713D
:101AC000FFF72CFF054BBDE8F0411B6805201847C8
:101AD000BDE8F0814041024000400240580600202D
:101AE00010B50146C8B90D4B0D4801241C704022A9
:101AF0002346FFF765FF08B1FFF7CAF8094B4FF01F
:101B0000A0429C60D2F80435D94301F4005103F49B
:101B10000053C2F80815C2F80C3510BD5C06002051
:101B2000F82800000040024037B500210846FEF7C3
:101B3000A7FD08B1FFF7ACF8FEF7E6FC5F4C604B81
:101B40006049E41AE408240444F003042046FEF744
:101B500031FFFEF7E7FD0028FBD101234FF0A04243
:101B600003210130202840F09A804FF0A0434FF429
:101B7000F032C3F8082500225349C3F80C2520464B
:101B8000FEF718FFFFF74CFC08B1FFF781F84F494B
:101B90002046FEF70FFFFEF7C5FD0028FBD1FFF73B
:101BA0005FFC4B492046FEF705FFFEF7BBFD002812
:101BB000FBD1484D45F00105FFF77CFC002878D0AB
:101BC00045492046FEF7F6FEFEF7ACFD0028FBD1A6
:101BD00042492046FEF7EEFE00F0D4F8FEF7A2FDE3
:101BE0000028FBD13E492046FEF7E4FEFFF7B4FB98
:101BF00008B1FFF74DF83B492046FEF7DBFE002316
:101C0000CDF80230384940F2FF332046ADF80030BD
:101C1000FEF7D0FEFEF786FD0028FBD1334A34489C
:101C20006946FFF783FE08B1FFF732F83048012319
:101C300040220021FFF7C4FE08B1FFF729F82C4825
:101C4000FFF7B2FE2B4902222046FEF7B7FEFEF751
:101C500069FD0028FBD128492046FEF7ABFE274945
:101C60002046FEF7A7FE26492046FEF7A3FE22499E
:101C70002046FEF79FFEFEF755FD04460028FAD1E8
:101C8000204D2B7833B12C7000F0FEF8FEF74AFDA2
:101C90000028FBD1FEF746FDFFF774FBF1E703FADE
:101CA00000F515F4F03F1CBF00F5E07542F8251073
:101CB00057E74FF47A40A8477EE700BFC4250000ED
:101CC0008C25000075270000A1270000B627000022
:101CD000CE270000F0280000F427000007280000AD
:101CE0001B280000392800004C280000E11A0000E1
:101CF000F82800006428000084280000AD280000B7
:101D0000BB2800005C06002000F5E0704FF0A04307
:101D1000032243F820207047024B800143F0010367
:101D2000184700BF602A000008B50378022B10D1C5
:101D3000084B0948094901221A70094BC01AC0080A
:101D4000000440F00300FEF735FEFEF7EBFC002830
:101D5000FBD108BD7C060020C4250000002900003E
:101D60008C250000012303FA00F04FF0A043C3F8D4
:101D70000C05704700F5E0704FF0A043022243F8D5
:101D80002020704730B5022085B0FFF7F3FF032015
:101D9000FFF7F0FF314B324C1868324B0090E41AD9
:101DA000E408240444F003042F492046FEF702FE11
:101DB000FEF7B8FC0028FBD12C496846FFF79AFCD7
:101DC00008B1FEF765FF0023CDE901338DF80C3033
:101DD0002749022320468DF80830FEF7EBFDFEF779
:101DE000A1FC0028FBD1012301A98DF80B30FFF7DE
:101DF000C9FC08B1FEF74CFF1E492046FEF7DAFD8C
:101E0000FEF790FC0028FBD1022301A901208DF8E8
:101E10000B30FFF7B7FC08B1FEF73AFF1649204632
:101E2000FEF7C8FD15492046FEF7C4FDFEF77AFC13
:101E30000028FBD1124D2870FFF756FD08B1FEF7C0
:101E400027FF2B78002BFCD00E492046FEF7B2FD71
:101E5000FEF768FC0028FBD105B030BD532A000016
:101E6000C42500008C25000030290000291D000039
:101E7000512900006F2900008D290000BF290000B2
:101E80007C060020032A00002DE9F04F824B834C92
:101E9000E41A91B0E40801AD240444F0010BA94612
:101EA0000027AA460220FFF72FFF0320FFF72CFF91
:101EB0000220FFF757FF0320FFF754FF4FF47A701B
:101EC000FFF72AFF4FF47A70FFF726FF4FF47A707E
:101ED000FFF722FF4FF47A70FFF71EFF4FF47A707E
:101EE000FFF71AFF0220FFF745FF0320FFF742FF2D
:101EF0004FF47A70FFF710FF0220FFF705FF4FF055
:101F0000A0430422C3F808254FF47A70FFF704FFBA
:101F10000320FFF72FFF0A20FFF7FEFE4FF00A080D
:101F200000260DF102010120FFF774FC034638B1D1
:101F30005B4901225846FEF74AFD0023ADF8023006
:101F4000BDF90230B8F101081E44EAD10A2102208D
:101F5000B6FBF1F649F8046BFFF704FF0220FFF728
:101F600009FF0E464FF47A70FFF7D6FE013EF9D115
:101F700001370F2F96D133460133284604352946C1
:101F80001A46076851F804CB0132674584BFC0F890
:101F900000C041F8047C0F2AF3D10E2BECD10323AF
:101FA0005AF8232001330C2B1644F9D10923B6FB30
:101FB000F3F607EE906AC6F57F66F8EEE76ADFEDA6
:101FC000397A0F3666EEA76A07EE906AF8EE677AFE
:101FD00086EEA77ADFED347A37EE677AB5EEC07A0F
:101FE000F1EE10FA54D4DFED317AB4EEE77AF1EE87
:101FF00010FA4DDD2E492F4A0B782F4802EB830251
:10200000D2ED006A82ED007A01330522B3FBF2F2D1
:1020100002EB82029B1A294A0B701378D0ED007AEA
:10202000042B9CBF01331370137877EEE67A06EE2B
:10203000903A77EE877AF8EEE66AC0ED007A87EE9E
:10204000A67ADFED1F7AB4EEE77AF1EE10FA1BD430
:10205000DFED1C7AB4EEE77AF1EE10FA16D4DFED7C
:102060001A7AB4EEE77AF1EE10FA4CBF022303239A
:10207000FDEEC77A154917EE902A44F0030011B01F
:10208000BDE8F04FFEF7A3BC0023F1E70123EFE723
:1020900011B0BDE8F08F00BF8C250000C425000002
:1020A000142A00000000C64200002442CDCCCC3DE2
:1020B00075060020600600207806002074060020C7
:1020C0000000164300007A430000FA43352A00005E
:1020D0000369C26893429CBF80681B18013B981A31
:1020E00070472DE9F843D0E902940546A9EB0408AE
:1020F0004068904520440F46144404D900F0CBF9C1
:10210000EC60BDE8F8834246A4EB090400F0C3F993
:102110006868224607EB0801F0E72DE9F843C56837
:102120000646894617464FF000083469B368706860
:10213000A54228BFE418013C621B5C1BBC4228BFBF
:102140003C46944228BF144649462844224600F0A3
:10215000A2F9B3682544AB4208BF00253F1BA04449
:10216000A144F560E1D14046BDE8F88310B5114CBB
:10217000114AA2610223C4E90433104BE361A26453
:102180004FF400730E4A0F492362E26400231022C9
:10219000E01DA3626362E362A3656365E365226594
:1021A00000F0A2F90849204600F09EF92023A3710F
:1021B00010BD00BF80060020662A0000080700202E
:1021C000F80600206F2A0000732A000070B5164B35
:1021D000182400FB04451D4404FB00331646DC6A4A
:1021E000012C0ED0022C18D0E4B92846FFF770FF5E
:1021F000864204D832462846FFF773FF344620460D
:1022000070BD2846FFF764FF8642344628BF044667
:1022100022462846FFF765FFF1E72846BDE87040F3
:10222000FFF77BBF0024EAE780060020FFF79EBF90
:102230004FF08053D3F83001A0F10D0358425841BC
:1022400070470000024AD2F80034002BFBD07047E0
:1022500000E0014010B5FFF7EBFF40B14FF08043C5
:102260000022C3F80C21C3F81021C3F83825FFF76A
:10227000DFFF002846D04FF08052514BD2F80414B3
:10228000C3F82015D2F80814C3F82415D2F80C149A
:10229000C3F82815D2F81014C3F82C15D2F814146A
:1022A000C3F83015D2F81814C3F83415D2F81C143A
:1022B000C3F84015D2F82014C3F84415D2F82414FA
:1022C000C3F84815D2F82814C3F84C15D2F82C14CA
:1022D000C3F85015D2F83014C3F85415D2F834149A
:1022E000C3F86015D2F83814C3F86415D2F83C145A
:1022F000C3F86815D2F84014C3F86C15D2F844241A
:10230000C3F87025FFF794FF48B14FF08043D3F82E
:102310000024D20744BF6FF00102C3F80024294A09
:10232000D2F8883043F47003C2F88830BFF34F8F7F
:10233000BFF36F8F4FF08053D3F830210D2A0ED1A9
:10234000D3F83431022B02D81F4AD35C3BB14FF093
:102350001023D3F808224FF08043C3F858254FF0DC
:102360001023D3F80022002A03DBD3F80432002B19
:1023700022DA164901234FF01020C1F80435122447
:10238000FFF760FFC0F80042FFF75CFFC0F80442AF
:10239000FFF758FF0023C1F80435FFF753FFBFF3E1
:1023A0004F8F08490A4BCA6802F4E0621343CB60BE
:1023B000BFF34F8F00BFFDE7064B074A1A6010BD01
:1023C00000C0004000ED00E07A2A000000E001407B
:1023D0000400FA05080000200090D0037F2805D8EB
:1023E000034B185C034B5B5C184070470020704740
:1023F0008C2A00000C2B0000A0F16103192B98BF60
:1024000020387047A0F14103192B98BF2030704746
:102410007F2805D8034B185C034B5B5C1840704762
:10242000002070478C2A00000C2B0000A0F16103F3
:10243000192B98BF20387047A0F14103192B98BF82
:10244000203070477F299ABF017001206FF02E0065
:1024500070475AB10A787F2A0AD800B10260002179
:1024600019605960501A18BF01207047002070474A
:102470006FF02E007047000008B5034B5B689B6847
:102480001B68984708BD00BF0C00002008B5092153
:10249000FFF7F2FF08BD844640EA010313F0030F83
:1024A00018D18446202A0BD32DE9F007B1E8F807AC
:1024B000A0E8F807A2F12002202AF7D2BDE8F00731
:1024C000042A07D351F8043B40F8043BA2F104026C
:1024D000042AF7D2002A05D011F8013B00F8013B8D
:1024E000013AF9D160467047024610F0030F16D149
:1024F00011F0030F13D12DE9F0004FF001374FF029
:10250000803351F8044BA4EB070525EA04051D4070
:1025100002D142F8044BF4E7A1F10401F0BC11F838
:10252000013B02F8013B002BF9D1704700F101019A
:1025300010F0030F11D010F8012B002A23D010F057
:10254000030F0AD010F8012B002A1CD010F0030F43
:1025500003D010F8012B002A15D02DE970004FF0A0
:1025600001324FF0803350F8044BA4EB020525EA0A
:1025700004051D4000D1F6E7A0F1040070BC10F87E
:0C258000012B002AFBD1A0EB01007047EA
:10258C005227000000000000582700000000000047
:10259C005C27000000000000712700000000000014
:1025AC00602700000000000066270000000000000B
:1025BC006B2700000000000035260000000003031C
:1025CC004C27000000000000352700000000000030
:1025DC000826000000000000142600000000002067
:1025EC00640000202C010020340100206C0000202D
:0425FC0018000000C3
:102600000338FDD870470000D503000041040000E6
:10261000D10300007274745F6C6F675F6261636BFB
:10262000656E64004261636B656E647320666C75F1
:10263000736865640061707000000000540500203C
:102640007F000000D40500201B5B313B33316D005F
:1026500025734C6F67732064726F707065642028F7
:1026600025642925730D0A001B5B306D002573005E
:102670003C25733E2025733A200020253032780017
:10268000202020007C002563001B5B313B33306D34
:10269000001B5B313B33326D001B5B313B33336DD1
:1026A000001B5B313B33346D001B5B313B33356DBD
:1026B000001B5B313B33366D001B5B313B33376DA9
:1026C000007761726E696E6700696E666F0064659F
:1026D0006275670068260000892600004826000011
:1026E0009126000099260000A1260000A9260000DE
:1026F000B1260000B92600000000000012270000EB
:10270000C1260000C9260000CE2600004661746183
:102710006C206572726F720053797374656D2072EC
:1027200065736574003031323334353637383941AA
:1027300042434445467077725F6D676D74000000D8
:102740008C2500008C25000004000000636C6F6382
:102750006B00434C4F434B005050490050525300C4
:102760005341414443005541525400554152544550
:1027700000525443003D3D3D3D3D206E52463532B2
:102780003833332043617061636974697665205220
:1027900061696E2053656E736F72203D3D3D3D3D16
:1027A000005374657020313A204C46434C4B2063F3
:1027B0006F6E6669670020202D2052657175657304
:1027C00074696E67204C46434C4B2E2E2E00202001
:1027D0002D2057616974696E6720666F72204C46C0
:1027E000434C4B20746F2073746162696C6973652C
:1027F0002E2E2E00202020204C46434C4B2072755C
:102800006E6E696E672E005374657020323A2053E5
:10281000656E736F7220696E697400537465702001
:10282000333A20506F776572206D616E6167656D18
:10283000656E7420696E6974005374657020343A53
:102840002052544320636F6E6669670020202D205C
:10285000496E697469616C697A696E672052544384
:102860002E2E2E002020202052544320656E6162BF
:102870006C65642E20496E74657276616C3A202511
:10288000642073002D2D2D2D2D2D2D2D2D2D2D2D35
:102890002D2D2D2D2D2D2D2D2D2D2D2D2D2D2D2D68
:1028A0002D2D2D2D2D2D2D2D2D2D2D2D00537973CD
:1028B00074656D2072656164792E004C6576656C77
:1028C0003A20303D4E4F4E452020313D4C4947483F
:1028D000542020323D4D4F44455241544520203331
:1028E0003D4845415659000000000000000000002E
:1028F0000338FDD870470000004002402400040067
:102900002020202053414144432068617264776154
:102910007265206F66667365742063616C696272AC
:102920006174696F6E20636F6D706C6574652E00E5
:1029300020202D20496E697469616C697A696E671F
:10294000205341414443206472697665722E2E2ED5
:102950000020202D20436F6E6669677572696E676F
:102960002041494E302028636830292E2E2E002029
:10297000202D20436F6E6669677572696E6720410E
:10298000494E312028636831292E2E2E0020202D1B
:10299000205374617274696E67205341414443202F
:1029A0006861726477617265206F66667365742012
:1029B00063616C6962726174696F6E2E2E2E0020E5
:1029C000202020285472696D7320696E7465726EC0
:1029D000616C20414443206F66667365743B2063DD
:1029E0006F6D706C65746573206265666F726520CB
:1029F0006669727374206D6561737572656D656E5D
:102A000074290020202020534141444320726561F5
:102A100064792E00534141444320636F6E766572A2
:102A200073696F6E206661696C65642063682564F4
:102A30003A2025640043617061636974616E636567
:102A40003A2025642070462C204C6576656C3A202F
:102A500025640002000601000000000000000000E4
:102A60000338FDD870475465726D696E616C005211
:102A700054540053454747455200000001000000F0
:102A800043000000504F53495800000020202020F0
:102A900020202020206828282828202020202020CE
:102AA000202020202020202020202020481010102E
:102AB0001010101010101010101010108484848446
:102AC00084848484848410101010101010818181FB
:102AD0008181810101010101010101010101010166
:102AE00001010101010101101010101010828282F9
:102AF0008282820202020202020202020202020236
:102B0000020202020202021010101020000703202D
:102B1000041702010857104080000000802A0000BE
:102B2000842B0000982C000053756E004D6F6E00D2
:102B300054756500576564005468750046726900F5
:102B400053617400000000004A616E004665620037
:102B50004D617200417072004D6179004A756E00DE
:102B60004A756C0041756700536570004F637400CF
:102B70004E6F76004465630000000000414D005038
:102B80004D000000BC2C0000B82C0000B82C000048
:102B9000B82C0000B82C0000B82C0000B82C0000A5
:102BA000B82C0000B82C0000B82C0000FFFFFFFF7D
:102BB000FFFFFFFFFFFFFFFFFFFF0000F82B0000FC
:102BC000282B0000342C0000482B00007C2B000038
:102BD000DC2B00008C2C0000E82B0000256D2F253D
:102BE000642F2579000000002561202562202565DD
:102BF000202554202559000053756E646179004DDD
:102C00006F6E64617900547565736461790057650E
:102C1000646E657364617900546875727364617978
:102C200000467269646179005361747572646179F8
:102C3000000000004A616E7561727900466562723B
:102C400075617279004D6172636800417072696CE0
:102C5000004D6179004A756E65004A756C790041D6
:102C600075677573740053657074656D6265720085
:102C70004F63746F626572004E6F76656D62657248
:102C800000446563656D62657200000025483A2561
:102C90004D3A255300000000DD230000F923000019
:102CA00005240000112400002D2400003924000018
:102CB0004524000053240000000000002E00000006
:102CC00000000000FF0000000090D0031C2B00005B
:102CD0001C2B00001C2B00001C2B00001C2B0000D8
:040000030000037581
:00000001FF
