:1000000000000220750300005D0300005F03000094
:1000100061030000630300006503000000000000AE
:100020000000000000000000000000006703000066
:1000300069030000000000006B0300006D03000076
:10004000491500006F030000951500006F030000C4
:100050006F0300006F0300006F030000B91500007C
:100060006F0300006F0300006F0300006F030000C8
:100070006F0300006F0300006F0300006F030000B8
:100080006F0300006F0300006F0300006F030000A8
:100090006F0300006F0300006F0300006F03000098
:1000A0006F0300006F0300006F0300006F03000088
:1000B0006F0300006F03000000000000000000005C
:1000C0006F0300006F0300006F0300006F03000068
:1000D0005D1A00006F0300006F0300006F03000053
:1000E0006F0300000000000000000000000000009E
:1000F000000000006F030000000000006F0300001C
:1001000000000000000000000000000000000000EF
:1001100000000000000000000000000000000000DF
:1001200000000000000000000000000000000000CF
:1001300000000000000000000000000000000000BF
:1001400000000000000000000000000000000000AF
:10015000000000000000000000000000000000009F
:10016000000000000000000000000000000000008F
:10017000000000000000000000000000000000007F
:10018000000000000000000000000000000000006F
:10019000000000000000000000000000000000005F
:1001A000000000000000000000000000000000004F
:1001B000000000000000000000000000000000003F
:1001C000000000000000000000000000000000002F
:1001D000000000000000000000000000000000001F
:1001E000000000000000000000000000000000000F
:1001F00000000000000000000000000000000000FF
:10020000354936480A1A02D0072291438D463449AF
:1002100034480A1A06D00722914381F30988022242
:1002200082F3148830483149314A00F044F83148AB
:100230003149324A00F03FF831483249324A00F041
:100240003AF832483249334A00F035F832483349F7
:10025000334A00F030F833483349344A00F02BF881
:1002600033483449344A00F026F8344834490022EF
:1002700000F02CF833483449002200F027F83348C6
:100280003349091A082902DB002202604160314A21
:1002900090471F481F49884205D00268043003B4C4
:1002A000904703BCF7E700208646EC46002000217B
:1002B000294A9047FEE7884207D0521A05D00378B2
:1002C00001300B700131013AF9D17047884202D0F8
:1002D00002700130FAE770470000022000E00120C0
:1002E0000000022000000220B82C000000000020C6
:1002F00020000020D0030000D0030000642500008F
:10030000B82C00000000002000000020D8250000CC
:10031000D8250000D8250000D8250000D8250000E9
:10032000D8250000D8250000D8250000B82C0000F2
:10033000D82C0000200000202000002020000020F9
:1003400004090020040900200409002004090020F9
:10035000042900209D030000D51B0000FEE7FEE7F6
:10036000FEE7FEE7FEE7FEE7FEE7FEE7FEE7FEE765
:1003700000F002B8FFF7FCBF0F484FF007018843B9
:1003800085460E4880470E48016841F470010160BF
:10039000BFF34F8FBFF36F8FFFF732BF09480A4992
:1003A0000A4A884207D0521A05D0037801300B70F0
:1003B0000131013AF9D17047000002202D220000DE
:1003C00088ED00E0D825000000000020000000209B
:1003D0007047000007B5044B0093044A402300F027
:1003E00032F803B05DF804FBF103000021000020A7
:1003F0002DE9F84388461446B2B10F4B0F4E032542
:10040000002743F00109224608EB0701002001F014
:10041000C9FE0744241A48B933782BB14FF47A4007
:10042000C847013D02D13570BDE8F8830123337020
:10043000002CE8D1F8E700BFE025000020000020F4
:10044000704701F0DFBEF0B595B01D461646084670
:100450000C4600F067FF1A9B0D93CDE90865002557
:100460002B46082205A920460A958DF82C500C959C
:1004700000F074FF079B0293069B03939DF81430D2
:100480008DF8115003F00302012A1DD1BDF814208C
:10049000059DC3F3C203C2F383168DF81030B2007A
:1004A00008230EA9204600F059FFC5F3952508AB97
:1004B0000093324602AB0EA9284600F035FB2046D9
:1004C00000F034FF15B0F0BD022AF8D1BDF8165087
:1004D000C3F3C203C5F389158DF810300827082D22
:1004E0002E4628BF08263B4632460EA9204600F07D
:1004F00035FFAD1B08AB02AA31460EA8374400F009
:1005000077FB002DEBD1DAE708B5FFF79AFF044837
:10051000042100F073FA034B01225A7108BD00BF99
:10052000B425000000000020037813F0040216D068
:1005300003F00303012B03D0022B09D001207047E5
:100540000A6800880232C0F3831002440A60F5E7AB
:100550000B684288023303EB92130B60EEE7104600
:10056000704700002DE9F04FDFF810A10F4685B06D
:100570000446861C0020154600F0ECFBDAF8042047
:100580003A60DAF8083003F580739B1A0AF21C47C8
:100590000AF583690AF21448B34219D30020002DEA
:1005A00068D004F00F039B0143F0050363F30F00D1
:1005B000DAF80430DAB2033233444AF82200002079
:1005C000CAF8043000F0C8FB012005B0BDE8F08F88
:1005D0000121384600F0E5FB484600F0FAFB4046B2
:1005E00000F0F7FBDAF808000090C0B203300AEB25
:1005F00080006946FFF798FF009B30BBDAB20AEB38
:100600008202D16801919A1C0133DBB20AEB8303A9
:100610000092D3F80CB001F00303012B22D0022B7F
:1006200015D08346404600F0D7FB10B1009BCAF8B6
:1006300008305946384600F0B4FBDAF80830DAF8EA
:10064000042003F580739B1AA6E7D8B2CEE7BDF865
:100650000630C3F3891303334FEA1B4B02EB9303BA
:100660000093DFE7BDF80430C3F383134FEA1B4B5D
:100670001344F5E7A40544F0060099E7340100208F
:10068000064B074810B500221A7000F004FE04461D
:1006900010B9044800F09CFE204610BD3401002033
:1006A000C42500001C26000030B50A4C71B10A4A6E
:1006B0000A49121BD20800239A4201D1002030BD02
:1006C00031F82350854202D00133F5E7034654F850
:1006D0003300F4E764250000B4250000000000208A
:1006E000094B013903EBC000032909D8DFE801F009
:1006F0000A02040604207047007970474079704769
:1007000000207047022070476425000070470000F9
:10071000034BD3E90130C31A58425841704700BF18
:10072000340100202DE9FF41FFF7F2FF05460028C4
:1007300040F0E980754CC4F81804BFF34F8FA368EC
:100740000093DBB2033304EB83006946FFF7ECFE52
:10075000009B18B1D4F81824002A5AD0DAB2991C98
:10076000013304EB8202DBB204EB8303D268DB6863
:10077000029302F00303022B0192009154D1BDF8C1
:1007800006306348C3F38917502F3E4628BF5026D2
:1007900006F1080166F38F13C1F30901ADF80630C5
:1007A00000F091FD0546002800F0988000F0BAFDA9
:1007B0000023082201A9284600F0C6FD0099CB437A
:1007C000DBB20133C9B20331B6EB830F4FEA8302C8
:1007D00004EB810125D95FFA82F80823A6EB08060D
:1007E000284600F0B1FDF6B208F10803494903F0CC
:1007F000FC033246284600F0A7FD009B033703EBBD
:1008000097070097D4F81834002B43D1D4F810641C
:1008100053E062689A4294D8A260284604B0BDE8CA
:10082000F08108233246E5E7012B57D1BDF80430AB
:100830003748C3F38311062928BF062161F38913C2
:10084000023101F00F018900ADF8043000F03BFDEA
:100850000546002842D000F065FD0023082201A9CA
:10086000284600F071FD0026BDF80420C2F3831273
:10087000B300964203F10803C4D200994A1CC9B2DE
:100880000331009204EB81010422284600F05CFD54
:100890000136E9E7284600F049FDFFF739FF80F00F
:1008A0000100C5B2B9E7F3685B7923B13368294623
:1008B0001B6830469847F3681E68002EF3D128461F
:1008C00000F034FD304600F045FAD4F818340BB986
:1008D000009BA360002000F03FFADEE7D4F810444C
:1008E00054B90D4B0D480E49C01AC008000440F021
:1008F000020000F05FF8D0E7236820469B68984725
:10090000E3681C68ECE7002587E700BF340100209E
:10091000C425000040010020642500009C25000043
:10092000042600002DE9F34704460E46924601A92D
:10093000012218469946FFF715FE1C4F10B3019D82
:100940004FF00008AA1CC84508EB020125D1184841
:10095000002100F003FA80F31000000440EA144084
:10096000E4006B1C04F03804DBB2EDB244F0010487
:1009700007EB8303033544EA881444EA8624D860ED
:1009800047F825403B781BB1FFF7CCFE0028FBD190
:10099000FFF7BCFE02B0BDE8F087C9B207EB8101EA
:1009A0005AF82830CB6008F10108CCE73401002068
:1009B0005005002000231A46FFF7B4BF07B50123F6
:1009C000019201AAFFF7AEFF03B05DF804FB07B583
:1009D000CDE9002302236A46FFF7A4FF03B05DF8C8
:1009E00004FB1FB5CDE90123069B039301AA032352
:1009F000FFF798FF05B05DF804FB000030B50F4C21
:100A0000D4F8102403460020114631B9D968087182
:100A10004AB9C4F810340A6030BDC9680D798542FE
:100A200006D00968F1E7D26814680C601360F3E738
:100A300001300A28E8D14FF0FF30EDE73401002003
:100A400038B5084B0125D3F810441D7004B938BDE2
:100A5000E3685D71236820465B689847E3681C681B
:100A6000F4E700BF3401002030B5C38885B00446E8
:100A70000D4633B1144A00921449154A284600F035
:100A800005FA217A05291DD0637A4BB1A088FFF7BA
:100A900027FE104B104953F82020284600F0F6F9A5
:100AA000227A0E4BA08853F8222003920021FFF7F0
:100AB000FBFD039A0A490346284605B0BDE83040CD
:100AC00000F0E4B905B030BD482600003026000033
:100AD00028260000B42600004D260000D82600007D
:100AE0005026000007B503460846197A052911D09B
:100AF0005B7A2BB1094A0A49019000F0C7F90198C5
:100B00000849019000F0C2F9019803B05DF804EBC8
:100B100000F0B1B9002AF8D0F2E700BF4826000083
:100B20004D260000452600002DE9F04385B01F4604
:100B30000C9D002395F80C902B7306460C469046AE
:100B400029463846FFF790FFB8F1060F09D8DFE8CD
:100B500008F00412181F283340003146284600F0E0
:100B600095F9002229463846FFF7BCFF85F80C901E
:100B700005B0BDE8F08322683146284600F086F9CA
:100B8000EFE7D4E900233146284600F07FF9E8E793
:100B9000A36800933146D4E90023284600F076F993
:100BA000DFE7E3680193A36800933146D4E90023AB
:100BB000284600F06BF9D4E723690293E3680193B8
:100BC000A36800933146D4E90023284600F05EF97B
:100BD000C7E76369039323690293E3680193A368FA
:100BE00000933146D4E90023284600F04FF9B8E7D6
:100BF00008292DE9F74F80460E4617461C463CD87B
:100C0000002593F80C901D7319461046FFF72CFF32
:100C1000DFF888A0DFF888B0AE4231D918F8052097
:100C20005946204600F032F90135082DF4D1194912
:100C3000194DDFF870A0204600F028F94FF0000BA6
:100C40005E4522D918F80B207E2A05D8104601925D
:100C500001F008FC019A00B92E225146204600F00E
:100C600015F90BF1010BBBF1080FE9D10122214667
:100C70003846FFF737FF84F80C9003B0BDE8F08FDB
:100C80005146204600F002F9CEE72946204600F002
:100C9000FDF8E6E7642600006226000060260000FA
:100CA0005A260000662600001FB50021039001AA05
:100CB00044F20100CDE9011100F004F805B05DF83F
:100CC00004FB000038B572B6FFF7BAFEFFF72AFD45
:100CD0000028FBD1104B114C114D1249E41AE408C5
:100CE000240444F00100FFF765FED5F8F030DB077F
:100CF00000D500BE0C4944F00200FFF75BFEBFF3D5
:100D00004F8FEA68094B02F4E0621343EB60BFF3D4
:100D10004F8F00BFFDE700BF642500009C25000049
:100D200000ED00E0EC260000F82600000400FA05C3
:100D300072B6024A1368013313607047EC05002055
:100D4000034A1368013B136003B962B6704700BFE2
:100D5000EC050020FFF7ECBFFFF7F2BF10B503462C
:100D600053E8000F0A4643E8002494F0000FF7D13F
:100D700010BD10B5034653E8002F42EA010043E8D6
:100D8000000494F0000FF6D110BD10B5034653E8EF
:100D9000000F00EA010243E8002494F0000FF6D1AE
:100DA00010BD10B5034653E8002F02EB010043E8E5
:100DB000000494F0000FF6D110BD10B5034653E8BF
:100DC000002FA2EB010043E8000494F0000FF6D1DD
:100DD00010BD0121FFF7CDBF0021FFF7D6BF10B531
:100DE00090B1D0E9012301689B1ADBB20A60013B94
:100DF000DBB2FF2B026802D10020107110BD116818
:100E00004C1C14600B70F2E70E20F7E738B504466F
:100E10000020FFF79FFF226863681168994213D989
:100E2000481E106011F8013CE568218A01FB03555A
:100E3000A36811791B1ADBB2994200D2137100200A
:100E4000FFF78AFF284638BD0025F8E738B5054684
:100E500000200C46FFF77EFF2A681368591C1160BA
:100E6000E968641A298AB4FBF1F41C70BDE83840C3
:100E70000020FFF771BF826810B504462AB14369AC
:100E80000168006998470023A36010BD0EB403B544
:100E9000039921B104AB01AA019300F06FF802B0ED
:100EA0005DF804EB03B07047826830B40468551CE9
:100EB0008560A154D0E901329A4202D330BCFFF7D9
:100EC000DABF30BC704700002DE9F84F9846DDE9E5
:100ED0000A43154682460F460A464FF00109AA42C8
:100EE0000FD2C14538BFC14613F0010B01D16CB917
:100EF00000240126B8F1010F1BD908F1FF386E4319
:100F0000F8E709F10109B2FBF5F2E8E79B070ED516
:100F1000B8F1000F0CBF30262026A145E9D2013CD4
:100F200031465046FFF7C0FF002CF6D1E0E72026FF
:100F3000F3E7B7FBF6F39D42E1D9DFF83C80B7FB5E
:100F4000F6F3504618F8031006FB1377FFF7ACFFD3
:100F50003346AB42B6FBF5F6F1D2BBF1000F02D03F
:100F60000CB1A14501D3BDE8F88F20215046013CCA
:100F7000FFF79AFFF4E700BF052700002DE9F74FC0
:100F8000054617468846002900F03E8118F8011BE7
:100F900049B92B7B002B00F03781284603B0BDE810
:100FA000F04FFFF768BF252940F0B780002698F87A
:100FB00000302D2B424608F1010823D0302B24D0DD
:100FC0002B2B25D000242A2B02F1010123D13B68D1
:100FD0001A1D1B683A601C440A4613782E2B26D132
:100FE00001324FF0000A104610F8011BA1F1300C3D
:100FF000BCF1090F1DD80A2303FB0A13A3F1300A21
:101000000246F0E746F00106D1E746F00206CEE7D9
:1010100046F00406CBE711F8013CA3F130000928A3
:10102000DBD80A2202FB0434303C0A46CBE74FF0FF
:10103000000A12F8011B01F0FB0068289046F8D066
:10104000782909D86F290CD8632962D022D825299C
:1010500063D0582900F0888098F80030002B95D193
:1010600097E770390829F7D801A353F821F000BF9A
:10107000E311000059100000591000007911000020
:1010800059100000571100005910000059100000BD
:1010900069110000642901D06929DDD13A68D2F8CC
:1010A0000090111D89EAE9723960A2EBE9724FF0F4
:1010B000010B092A35DCD34538BFD3462CB1B9F131
:1010C000000F01DB720700D5013CB30702D5BAF16E
:1010D000000F03D0F00701D44CBB0024B9F1000F7E
:1010E0002DDAC9F100092D212846FFF7DDFE06F0B3
:1010F0000302022A04D1BAF1000F01D11CBB002463
:10110000CDE9004653460A2249462846FFF7DCFE51
:10111000A2E73B681A1D19783A602846FFF7C4FE1B
:101120009AE70A230BF1010BB2FBF3F2C1E7A345E7
:10113000D4D220212846013CFFF7B6FECCE7710748
:10114000D5D52B21D0E7A345DAD230212846013C62
:10115000FFF7AAFED2E73968CDE900460A1D3A60DA
:1011600053460A220968D0E739680A1D3A60CDE97A
:10117000004653461022F5E73B681A1D3A6016F008
:101180000106D3F8009024D1B9F1000F03D04846EE
:1011900001F0B8F90646B4421DD809F1FF3919F833
:1011A000011F00293FF458AF2846FFF77DFEF6E700
:1011B00028460136FFF778FE19F806100029F7D106
:1011C000A642BFF449AF20212846013CFFF76CFE40
:1011D000F6E70026F0E720212846013CFFF764FEF1
:1011E000D9E73B681A1D3A60302128461C68FFF792
:1011F0005BFE78212846FFF757FE00220823CDE941
:1012000000322146102280E703B0BDE8F08F00BF16
:101210002DE9F84FB0F806A04579D2F800B09DF856
:1012200028900AFB05F5043D88460BEB0301A94213
:1012300003F1040488BFA5EB030BB4FBFAF60746E1
:101240000AFB1644C2F800B04EB9AAEB04055D458E
:1012500028BF5D46BBF1000F04D1BDE8F88F3F68A1
:10126000013EF1E7043408EB06003C442A46B9F19C
:10127000000F0DD02146ABEB050B01F0F8F8DA4575
:101280002E443F6855464FF0000428BF5D46E1E715
:1012900001462046EFE7FFF7A2BDF8B546790146C3
:1012A000721E0546002393422D6803D30024A642F4
:1012B00002D8F8BD0133F6E70F682846FFF7C6FDF0
:1012C00001343946F3E72DE9F843068ACD1C074679
:1012D000FFF79CFD043E35440446B5FBF6F5F0B13E
:1012E0004FF48073EDB28380C680013D0760814674
:1012F0004FF00008A84512D23846FFF787FD064692
:1013000048B163790133637108F10108C9F800003D
:1013100007608146EEE72046FFF7BFFF34462046D0
:10132000BDE8F88301210430FFF73BBD10B5012172
:1013300004460430FFF741FDC0B220B92046BDE8A5
:101340001040FFF7AABF10BD1FB503920022009204
:1013500003AAFFF75DFF05B05DF804FB1FB503921C
:101360000122009203AAFFF753FF05B05DF804FBCA
:10137000064B10B500241C70054B1C60BFF35F8F3B
:101380000449054800F02DF8204610BDF80500205E
:10139000FC05002020270000F005002008B50020F3
:1013A000FFF7D8FCF1EE103A23F09F03E1EE103A7C
:1013B000BFF35F8F054B4022C3F884210020FFF765
:1013C000CBFC20BF40BF20BF08BD00BF00E100E054
:1013D000836800225A60C3E904229A60DA601A60C6
:1013E00070470B684A684360934208BF002301605E
:1013F00008BF43607047000038B5074C051E04F174
:10140000080318BF1C4623682BB11A6822605B686A
:1014100028469847F7E738BD0806002020B9054B55
:1014200001225A70FFF7E8BF012802D1014A9070EB
:10143000F8E770470006002038B50C4C23789BB9BC
:101440000B486360A3602361E36000F051F8054638
:1014500000F05AF801232370064BD3F800340BB187
:101460000123A370284638BD8525F5E70006002036
:101470001D1400000000014038B5134CA378054648
:1014800003F0FF0073B115B16B680120984700208D
:10149000FFF760FCE3680133E3600020BDE83840FB
:1014A000FFF75ABCFFF756FC25B1226913463BB93A
:1014B0002A602561E368002BECD100F037F8E9E7FA
:1014C0009D42F7D01B68F2E7000600204FF08043F2
:1014D000D3F81804C0F30040704700F180400023A7
:1014E00082B0036003680193019B02B07047000063
:1014F000044A137923B9012110601171184670470D
:101500008520704714060020074B1A68D20704D4C0
:10151000C02283F8002301221A604FF08043012289
:10152000C3F81825704700BF00E100E008B54FF48C
:101530008270FFF7D2FF4FF080430222C3F80423EA
:1015400001229A6008BD00004FF0804210B5D2F829
:10155000003153B14FF48070FFF7BFFF0123C2F891
:1015600008330B4B00201B6898474FF08042D2F89D
:10157000043163B14FF48270FFF7AFFF0223C2F86A
:101580000833034BBDE810401B680120184710BD0D
:1015900014060020014B1B68184700BF1C060020E2
:1015A00000F1804000F5E040002382B00360036852
:1015B0000193019B02B07047F0B5524B524CD3F8E7
:1015C000043185B0002B3DD094F82E204FF482706A
:1015D000FFF7E6FF2AB394F82F3013BB494AD2F83D
:1015E0000031002B32D04FF48070FFF7D9FF638BAE
:1015F00094F82D00834250D921891B1A9BB289B2DD
:101600006383CB1A616801EB4303C2F82C36C2F83E
:1016100030064FF48270FFF7C3FF3A4B01225A6045
:1016200014E0636802932389ADF80C30E36800216D
:101630008DF8041033BB2374236801A89847002356
:1016400084F82F3094F82E30002BC7D12D4BD3F8CF
:1016500010315BB14FF48870FFF7A2FF00232374B1
:1016600002238DF8043001A823689847254BD3F84E
:101670001431EBB14FF48A70FFF792FF002323740B
:1016800005B0F0BD208B608363602081E160002A9B
:10169000D2D11C4B01221A60CEE7BAD1E3680121F6
:1016A00084F82F1013B100216183AEE76383B0E7A4
:1016B00066694FF000470125002EE1D0B6FA86F2A8
:1016C00027FA02F34632920026EA030602F180432B
:1016D00003F5E0431B68002BEED01046A2F58C7298
:1016E000FFF75EFFD30882F00402C2F380028DF898
:1016F00008308DF8045023688DF8092001A8984718
:10170000DAE700BF007000402406002038B5204A08
:1017100092F82C300446002B37D111601D49007817
:10172000C1F8F0056078C1F8F4050125E07813747C
:1017300082F82D30536182F82F306FF0004382F829
:101740002E0082F82C504FF48270C1F80833FFF756
:1017500027FF4FF48070FFF723FF4FF48A70FFF7E5
:101760001FFFA3780C485B01DBB280F807338023AE
:1017700003600223C1F8043392F82E300BB1C1F894
:101780000453C1F80055002038BD0820FCE700BF15
:10179000240600200070004000E100E030B5224B3C
:1017A0001A7C002A3ED100F10C0403EB44021279AA
:1017B00022B993F82D20013283F82D2003EB440346
:1017C000CA790C7A8D781A715C714B782D021B01E5
:1017D00005F4E06503F030032B430D7805F00305B5
:1017E0002B43CD782D0305F480552B430D792D0423
:1017F00005F4E0252B434D7989792D0505F48015F5
:10180000090601F080712B430B43010101F1804176
:1018100001F5E0410020C1F81835C1F81445C1F8C0
:10182000102530BD1120FCE72406002070B5324A97
:10183000147C04F0FF03002C5CD1304C01250326FE
:101840001574C4F80863C4F82C16C4F8305692F81E
:101850002D40AC420CD91D46190101F1804101F522
:10186000E0410133082BC1F81455C1F81055F3D1EC
:1018700000F10C03000102EB430300F1804000F58E
:10188000E04019795B79C0F81435C0F810151B4990
:1018900001230B604B6042F21073D1F8040108B9C8
:1018A000013BFAD14FF48070FFF77AFE4FF482705B
:1018B000FFF776FE012C11D90F4800210B0103F12F
:1018C000804303F5E0430131047F457FC3F814559D
:1018D0000829C3F8104500F10200EFD192F82E104C
:1018E000064B29B103210020C3F80413107470BD06
:1018F0000221F8E71120FAE72406002000700040DA
:1019000008B50A4B197C01F0FF0269B902214FF4B6
:1019100088701974FFF744FE054B1021C3F80413B7
:101920000121D960104608BD1120FCE724060020E3
:10193000007000400023435082B043580193019B44
:1019400002B07047F0B51A4C43791A4D44F8232081
:1019500003EB4303EB5C43BB90F904408B780279C3
:101960005B01002CDBB21BDB134E371987F8003309
:101970000123640902F01F0203FA02F246F8242050
:1019800003680A88C3F8082543790879C97803EB06
:101990004303EA18507091700122EA540020F0BD10
:1019A000064C02F00F02A354EAE70820F7E700BF55
:1019B000580600205406002000E100E014ED00E08D
:1019C000036801221A604379024A03EB43030221B0
:1019D000D1547047540600202DE9F04105464FF4DC
:1019E000803400681C4F8C40C0F84843C0F808435E
:1019F00095F805C00CEB4C063E4422F07F4296F869
:101A0000018001F5A8764FEA4C0E40F82620B8F187
:101A1000000F11D0D0F80485F4446744A8EB020607
:101A2000904538BF06F1FF16BA7838BF06F57F46F5
:101A3000B24201DD0D200CE03BB15031890089B28A
:101A4000FFF778FF2B68C3F804432B680020C3F826
:101A50004443BDE8F08100BF540600202DE9F04169
:101A6000224E234FDFF88C8000244FF48035D7F8C6
:101A70000433A6F580412B4289B20CD0336853B1B0
:101A8000C7F848533846C7F80853FFF753FFD8F84C
:101A90000030E0B298470134042C4FEA450506F1C6
:101AA0000406E4D11248D0F80433DA070AD5D0F896
:101AB00000313BB14FF48071FFF73CFF0D4B2046E6
:101AC0001B6898470A48D0F804339B070CD5D0F818
:101AD00004314BB14FF48271FFF72CFF054BBDE889
:101AE000F0411B6805201847BDE8F08140410240E5
:101AF0000040024058060020202806BF0020044B6A
:101B00004FF0A04300F5E070032243F82020704717
:101B10000003005038B5054D044645F001054FF46B
:101B20007A40A847013CFAD138BD00BF502A0000D6
:101B300008B50378022B10D1084B09480949012246
:101B40001A70094BC01AC008000440F00300FEF7E9
:101B500031FFFEF7E7FD0028FBD108BD7906002024
:101B60009C250000552700006425000010B50146A3
:101B7000C8B90D4B0D4801241C7040222346FFF7C5
:101B80002BFF08B1FFF790F8094B4FF0A0429C6083
:101B9000D2F80435D94301F4005103F40053C2F8DC
:101BA0000815C2F80C3510BD78060020582A000030
:101BB00000400240012303FA00F04FF0A043C3F8B5
:101BC0000C05704700F5E0704FF0A043022243F887
:101BD000202070472DE9F04F002195B00846FEF710
:101BE0004FFD08B1FFF760F8FEF78EFCC14AC24B0B
:101BF000C2499B1ADB084FEA034A4AF00304204615
:101C0000FEF7D8FE02230093BD494FF4CD7340F296
:101C1000DE322046FEF7E5FEFEF784FD054600288D
:101C2000FAD1B8492046FEF7C5FE29460125013103
:101C3000202940F016824FF0A0434FF4F032C3F851
:101C400008250022C3F80C250220FFF7BBFF032064
:101C5000FFF7B8FFAC492046FEF7ACFEFFF7ECFB00
:101C600008B1FFF721F8A9492046FEF7A3FEFEF7C9
:101C700059FD0028FBD1FFF7FFFBA5492046FEF7E1
:101C800099FEFEF74FFD0028FBD1FFF71FFC00284F
:101C900000F0F1819F492046FEF78CFEFEF742FDE1
:101CA00005460028FAD19C492046FEF783FE022310
:101CB0008DF8103006238DF8123098498DF81150A8
:101CC000012320468DF81330FEF774FEFEF72AFD3F
:101CD0000028FBD1924904A8FFF718FD08B1FEF7D0
:101CE000E3FF0023CDE905338DF81C308D49022335
:101CF00020468DF81830FEF75DFEFEF713FD002834
:101D0000FBD1012305A98DF81B30FFF747FD08B172
:101D1000FEF7CAFF84492046FEF74CFEFEF702FD9F
:101D20000028FBD1022305A901208DF81B30FFF705
:101D300035FD08B1FEF7B8FF7C492046FEF73AFEB4
:101D40007B492046FEF736FEFEF7ECFC0028FBD16F
:101D5000784D2870FFF7D4FD08B1FEF7A5FF2B786A
:101D6000002BFCD074492046FEF724FEFEF7DAFC77
:101D70000028FBD1FEF7D6FC0028FBD16F49204696
:101D8000FEF718FEFFF7F4FA08B1FEF78DFF6C4975
:101D90002046FEF70FFE0023CDF81630694940F2C9
:101DA000FF332046ADF81430FEF704FEFEF7BAFC10
:101DB0000028FBD1644A654805A9FFF7C3FD08B1B7
:101DC000FEF772FF6148012340220021FFF704FE65
:101DD00008B1FEF769FF5D48FFF7F2FD5C4902229A
:101DE0002046FEF7EBFDFEF79DFC0028FBD159498C
:101DF0002046FEF7DFFDFEF795FC0028FBD1564F8D
:101E000047F00107554A1378002B00F02581002682
:101E10000DF114091670CDF80C900220FFF76CFE3E
:101E20000320FFF769FE0220FFF7C4FE0320FFF73F
:101E3000C1FE0520FFF76EFE0220FFF7C3FE032060
:101E4000FFF7C0FE4FF47A40B8470220FFF754FE78
:101E50004FF0A0430422C3F808254FF47A40B84756
:101E60000320FFF7AFFE4FF42070B8470A254FF06C
:101E700000084AF0010B04A90120FFF7D7FC034634
:101E800038B1374901225846FEF7A1FD0023ADF8CD
:101E90001030BDF91030013D9844ECD1039A0A216D
:101EA000B8FBF1F342F8043B02200392FFF782FEF5
:101EB0000220FFF787FE01360846FFF72BFE0F2EA4
:101EC000ABD12B460133484609F1040949461A466D
:101ED000066851F804CB0132664584BFC0F800C0E3
:101EE00041F8046C0F2AF3D10E2BEBD1032305A983
:101EF0003EE000BF642500009C250000852700000F
:101F0000B1270000D8270000EA270000FF270000C3
:101F1000172800003D28000050280000632800001A
:101F2000311B000084280000A2280000C028000007
:101F3000F228000079060020362900004729000019
:101F400065290000782900006D1B0000582A000058
:101F500090290000B0290000502A000078060020D7
:101F6000032A00000000C64200002442CDCCCC3D34
:101F700051F8232001330C2B1544F9D10923B5FB6B
:101F8000F3F507EE905AC5F57F65F8EEE76A5FED69
:101F90000B7A0F3566EEA76A07EE905AF8EE677A6D
:101FA00086EEA77A5FED107A37EE677AB5EEC07AE3
:101FB000F1EE10FA4CD45FED137AB4EEE77AF1EE5D
:101FC00010FA45DD3049314A0B78314802EB830283
:101FD000D2ED006A82ED007A01330522B3FBF2F202
:101FE00002EB82029B1A2B4A0B701378D0ED007A19
:101FF000042B9CBF01331370137877EEE67A06EE5C
:10200000903A77EE877AF8EEE66AC0ED007A87EECE
:10201000A67ADFED217AB4EEE77AF1EE10FA2ED44B
:10202000DFED1E7AB4EEE77AF1EE10FA29D4DFED97
:102030001C7AB4EEE77AF1EE10FA4CBF02230323C8
:10204000FDEEC77A174917EE902A2046FEF7BFFC2F
:10205000FEF768FB0028FBD1FEF764FBFFF79EF953
:10206000D0E605FA01F313F4F03F3FF4E0AD084683
:10207000FFF742FDDBE50120FFF74CFD05E60023FD
:10208000DEE70123DCE700BF710600205C060020CC
:1020900074060020700600200000164300007A43FA
:1020A0000000FA43242A00000369C26893429CBFDF
:1020B00080681B18013B981A70472DE9F843D0E956
:1020C00002940546A9EB04084068904520440F4659
:1020D000144404D900F0CBF9EC60BDE8F883424623
:1020E000A4EB090400F0C3F96868224607EB080175
:1020F000F0E72DE9F843C5680646894617464FF0D4
:1021000000083469B3687068A54228BFE418013C30
:10211000621B5C1BBC4228BF3C46944228BF14464D
:1021200049462844224600F0A2F9B3682544AB4250
:1021300008BF00253F1BA044A144F560E1D1404603
:10214000BDE8F88310B5114C114AA2610223C4E91D
:102150000433104BE361A2644FF400730E4A0F493D
:102160002362E26400231022E01DA3626362E36243
:10217000A3656365E365226500F0A2F9084920467E
:1021800000F09EF92023A37110BD00BF7C06002043
:10219000602A000004070020F4060020692A0000DD
:1021A0006D2A000070B5164B182400FB04451D4431
:1021B00004FB00331646DC6A012C0ED0022C18D02A
:1021C000E4B92846FFF770FF864204D83246284615
:1021D000FFF773FF3446204670BD2846FFF764FFC3
:1021E0008642344628BF044622462846FFF765FF4C
:1021F000F1E72846BDE87040FFF77BBF0024EAE71F
:102200007C060020FFF79EBF4FF08053D3F83001CB
:10221000A0F10D035842584170470000024AD2F81D
:102220000034002BFBD0704700E0014010B5FFF7F1
:10223000EBFF40B14FF080430022C3F80C21C3F8FC
:102240001021C3F83825FFF7DFFF002846D04FF0F4
:102250008052514BD2F80414C3F82015D2F8081458
:10226000C3F82415D2F80C14C3F82815D2F81014AA
:10227000C3F82C15D2F81414C3F83015D2F818147A
:10228000C3F83415D2F81C14C3F84015D2F8201442
:10229000C3F84415D2F82414C3F84815D2F828140A
:1022A000C3F84C15D2F82C14C3F85015D2F83014DA
:1022B000C3F85415D2F83414C3F86015D2F83814A2
:1022C000C3F86415D2F83C14C3F86815D2F840146A
:1022D000C3F86C15D2F84424C3F87025FFF794FFB7
:1022E00048B14FF08043D3F80024D20744BF6FF0C9
:1022F0000102C3F80024294AD2F8883043F470035D
:10230000C2F88830BFF34F8FBFF36F8F4FF0805309
:10231000D3F830210D2A0ED1D3F83431022B02D854
:102320001F4AD35C3BB14FF01023D3F808224FF083
:102330008043C3F858254FF01023D3F80022002A19
:1023400003DBD3F80432002B22DA164901234FF0C5
:102350001020C1F804351224FFF760FFC0F80042D6
:10236000FFF75CFFC0F80442FFF758FF0023C1F8F5
:102370000435FFF753FFBFF34F8F08490A4BCA6874
:1023800002F4E0621343CB60BFF34F8F00BFFDE761
:10239000064B074A1A6010BD00C0004000ED00E087
:1023A000742A000000E001400400FA050800002043
:1023B0000090D0037F2805D8034B185C034B5B5C6F
:1023C0001840704700207047842A0000042B00004A
:1023D000A0F16103192B98BF20387047A0F1410389
:1023E000192B98BF203070477F2805D8034B185C05
:1023F000034B5B5C1840704700207047842A000044
:10240000042B0000A0F16103192B98BF20387047FE
:10241000A0F14103192B98BF203070477F299ABF44
:10242000017001206FF02E0070475AB10A787F2AA0
:102430000AD800B10260002119605960501A18BF13
:1024400001207047002070476FF02E007047000099
:1024500008B5034B5B689B681B68984708BD00BFC5
:102460000C00002008B50921FFF7F2FF08BD8446E3
:1024700040EA010313F0030F18D18446202A0BD33E
:102480002DE9F007B1E8F807A0E8F807A2F120026B
:10249000202AF7D2BDE8F007042A07D351F8043BFD
:1024A00040F8043BA2F10402042AF7D2002A05D026
:1024B00011F8013B00F8013B013AF9D16046704741
:1024C000024610F0030F16D111F0030F13D12DE9BE
:1024D000F0004FF001374FF0803351F8044BA4EB7C
:1024E000070525EA04051D4002D142F8044BF4E734
:1024F000A1F10401F0BC11F8013B02F8013B002BF3
:10250000F9D1704700F1010110F0030F11D010F85C
:10251000012B002A23D010F0030F0AD010F8012B52
:10252000002A1CD010F0030F03D010F8012B002A52
:1025300015D02DE970004FF001324FF0803350F884
:10254000044BA4EB020525EA04051D4000D1F6E783
:10255000A0F1040070BC10F8012B002AFBD1A0EB05
:0425600001007047BF
:1025640032270000000000003827000000000000AF
:102574003C2700000000000051270000000000007C
:102584004027000000000000462700000000000073
:102594004B27000000000000152600000000030384
:1025A4002C27000000000000152700000000000098
:1025B400E825000000000000F425000000000020D1
:1025C400640000202C010020340100206C00002055
:0425D40018000000EB
:1025D80000000000000000000338FDD8704700002C
:1025E800D503000041040000D10300007274745F39
:1025F8006C6F675F6261636B656E64004261636BF9
:10260800656E647320666C757368656400617070CC
:1026180000000000540500207F000000D4050020C1
:102628001B5B313B33316D0025734C6F677320643E
:10263800726F70706564202825642925730D0A005F
:102648001B5B306D002573003C25733E2025733AD3
:102658002000202530327800202020007C002563CF
:10266800001B5B313B33306D001B5B313B33326DFC
:10267800001B5B313B33336D001B5B313B33346DE7
:10268800001B5B313B33356D001B5B313B33366DD3
:10269800001B5B313B33376D007761726E696E6783
:1026A80000696E666F006465627567004826000001
:1026B80069260000282600007126000079260000FF
:1026C8008126000089260000912600009926000036
:1026D80000000000F2260000A1260000A926000044
:1026E800AE260000466174616C206572726F7200DC
:1026F80053797374656D2072657365740030313277
:102708003334353637383941424344454670777259
:102718005F6D676D7400000064250000642500008B
:1027280004000000636C6F636B00434C4F434B0025
:1027380050504900505253005341414443005541C1
:102748005254005541525445005254430020202011
:102758002053414144432068617264776172652067
:102768006F66667365742063616C6962726174690F
:102778006F6E20636F6D706C6574652E003D3D3D16
:102788003D3D206E52463532383333204361706107
:10279800636974697665205261696E2053656E734A
:1027A8006F72203D3D3D3D3D004B3D25642F31304E
:1027B8002C204373747261793D25642F3130207069
:1027C800462C20496E74657276616C3D25647300F1
:1027D8005374657020313A204750494F20696E691B
:1027E80074005374657020323A204C46434C4B2099
:1027F800636F6E6669670020202D205265717565CC
:102808007374696E67204C46434C4B2E2E2E002065
:10281800202D2057616974696E6720666F72204C9D
:1028280046434C4B20746F2073746162696C697302
:10283800652E2E2E00202020204C46434C4B207223
:10284800756E6E696E672E005374657020333A207A
:10285800534141444320696E69740020202D20496A
:102868006E697469616C697A696E67205341414485
:1028780043206472697665722E2E2E0020202D204A
:10288800436F6E6669677572696E672041494E309D
:102898002028636830292E2E2E0020202D20436FFB
:1028A8006E6669677572696E672041494E312028E6
:1028B800636831292E2E2E0020202D20537461723A
:1028C80074696E672053414144432068617264779C
:1028D800617265206F66667365742063616C6962F6
:1028E800726174696F6E2E2E2E00202020202854CD
:1028F80072696D7320696E7465726E616C204144F3
:1029080043206F66667365743B20636F6D706C65FA
:10291800746573206265666F726520666972737488
:10292800206D6561737572656D656E742900202070
:10293800202053414144432072656164792E00533D
:1029480074657020343A20506F776572206D616E1F
:102958006167656D656E7420696E6974005374658E
:102968007020353A2052544320636F6E66696700C1
:1029780020202D20496E697469616C697A696E67D7
:10298800205254432E2E2E00202020205254432023
:10299800656E61626C65642E20496E74657276613D
:1029A8006C3A20256420730053797374656D207226
:1029B800656164792E204F75747075743A2063616F
:1029C8007061636974616E63652028704629202BE5
:1029D800206C6576656C2028303D4E4F4E45203181
:1029E8003D4C4947485420323D4D4F44455241548F
:1029F8004520333D484541565929005341414443F8
:102A080020636F6E76657273696F6E206661696C9C
:102A1800656420636825643A202564004361706119
:102A2800636974616E63653A2025642070462C20C2
:102A38004C6576656C3A20256400000000000000B3
:102A480000000000000000000338FDD870470000B7
:102A580000400240240004005465726D696E616C88
:102A680000525454005345474745520000000100A6
:102A780043000000504F53495800000020202020F8
:102A880020202020206828282828202020202020D6
:102A98002020202020202020202020204810101036
:102AA800101010101010101010101010848484844E
:102AB8008484848484841010101010101081818103
:102AC800818181010101010101010101010101016E
:102AD8000101010101010110101010101082828201
:102AE800828282020202020202020202020202023E
:102AF8000202020202020210101010200007032036
:102B0800041702010857104080000000782A0000CE
:102B18007C2B0000902C000053756E004D6F6E00EA
:102B280054756500576564005468750046726900FD
:102B380053617400000000004A616E00466562003F
:102B48004D617200417072004D6179004A756E00E6
:102B58004A756C0041756700536570004F637400D7
:102B68004E6F76004465630000000000414D005040
:102B78004D000000B42C0000B02C0000B02C000068
:102B8800B02C0000B02C0000B02C0000B02C0000CD
:102B9800B02C0000B02C0000B02C0000FFFFFFFF9D
:102BA800FFFFFFFFFFFFFFFFFFFF0000F02B00000C
:102BB800202B00002C2C0000402B0000742B000060
:102BC800D42B0000842C0000E02B0000256D2F255D
:102BD800642F2579000000002561202562202565E5
:102BE800202554202559000053756E646179004DE5
:102BF8006F6E646179005475657364617900576517
:102C0800646E657364617900546875727364617980
:102C18000046726964617900536174757264617900
:102C2800000000004A616E75617279004665627243
:102C380075617279004D6172636800417072696CE8
:102C4800004D6179004A756E65004A756C790041DE
:102C580075677573740053657074656D626572008D
:102C68004F63746F626572004E6F76656D62657250
:102C780000446563656D62657200000025483A2569
:102C88004D3A255300000000B5230000D123000071
:102C9800DD230000E92300000524000011240000C2
:102CA8001D2400002B240000000000002E0000005E
:102CB80000000000FF0000000090D003142B00006B
:102CC800142B0000142B0000142B0000142B000000
:040000030000037581
:00000001FF
