:1000000000000220750300005D0300005F03000094
:1000100061030000630300006503000000000000AE
:100020000000000000000000000000006703000066
:1000300069030000000000006B0300006D03000076
:10004000E11400006F0300002D1500006F03000095
:100050006F0300006F0300006F03000051150000E4
:100060006F0300006F0300006F0300006F030000C8
:100070006F0300006F0300006F0300006F030000B8
:100080006F0300006F0300006F0300006F030000A8
:100090006F0300006F0300006F0300006F03000098
:1000A0006F0300006F0300006F0300006F03000088
:1000B0006F0300006F03000000000000000000005C
:1000C0006F0300006F0300006F0300006F03000068
:1000D000B91900006F0300006F0300006F030000F8
:1000E0006F0300000000000000000000000000009E
:1000F000000000006F030000000000006F0300001C
:1001000000000000000000000000000000000000EF
:1001100000000000000000000000000000000000DF
:1001200000000000000000000000000000000000CF
:1001300000000000000000000000000000000000BF
:1001400000000000000000000000000000000000AF
:10015000000000000000000000000000000000009F
:10016000000000000000000000000000000000008F
:10017000000000000000000000000000000000007F
:10018000000000000000000000000000000000006F
:10019000000000000000000000000000000000005F
:1001A000000000000000000000000000000000004F
:1001B000000000000000000000000000000000003F
:1001C000000000000000000000000000000000002F
:1001D000000000000000000000000000000000001F
:1001E000000000000000000000000000000000000F
:1001F00000000000000000000000000000000000FF
:10020000354936480A1A02D0072291438D463449AF
:1002100034480A1A06D00722914381F30988022242
:1002200082F3148830483149314A00F044F83148AB
:100230003149324A00F03FF831483249324A00F041
:100240003AF832483249334A00F035F832483349F7
:10025000334A00F030F833483349344A00F02BF881
:1002600033483449344A00F026F8344834490022EF
:1002700000F02CF833483449002200F027F83348C6
:100280003349091A082902DB002202604160314A21
:1002900090471F481F49884205D00268043003B4C4
:1002A000904703BCF7E700208646EC46002000217B
:1002B000294A9047FEE7884207D0521A05D00378B2
:1002C00001300B700131013AF9D17047884202D0F8
:1002D00002700130FAE770470000022000E00120C0
:1002E0000000022000000220F8270000000000208B
:1002F00020000020D0030000D00300002C230000C9
:10030000F82700000000002000000020A0230000CB
:10031000A0230000A0230000A0230000A0230000D1
:10032000A0230000A0230000A0230000F827000065
:1003300018280000200000202000002020000020BD
:100340000009002000090020000900200009002009
:10035000002900209D030000AD1D0000FEE7FEE720
:10036000FEE7FEE7FEE7FEE7FEE7FEE7FEE7FEE765
:1003700000F002B8FFF7FCBF0F484FF007018843B9
:1003800085460E4880470E48016841F470010160BF
:10039000BFF34F8FBFF36F8FFFF732BF09480A4992
:1003A0000A4A884207D0521A05D0037801300B70F0
:1003B0000131013AF9D1704700000220F51F000019
:1003C00088ED00E0A02300000000002000000020D5
:1003D0007047000007B5044B0093044A402300F027
:1003E00032F803B05DF804FBF103000021000020A7
:1003F0002DE9F84388461446B2B10F4B0F4E032542
:10040000002743F00109224608EB0701002001F014
:10041000ADFD0744241A48B933782BB14FF47A4024
:10042000C847013D02D13570BDE8F8830123337020
:10043000002CE8D1F8E700BFA02300002000002036
:10044000704701F0C3BDF0B595B01D46164608468D
:100450000C4600F05BFF1A9B0D93CDE90865002563
:100460002B46082205A920460A958DF82C500C959C
:1004700000F068FF079B0293069B03939DF81430DE
:100480008DF8115003F00302012A1DD1BDF814208C
:10049000059DC3F3C203C2F383168DF81030B2007A
:1004A00008230EA9204600F04DFFC5F3952508ABA3
:1004B0000093324602AB0EA9284600F029FB2046E5
:1004C00000F028FF15B0F0BD022AF8D1BDF8165093
:1004D000C3F3C203C5F389158DF810300827082D22
:1004E0002E4628BF08263B4632460EA9204600F07D
:1004F00029FFAD1B08AB02AA31460EA8374400F015
:100500006BFB002DEBD1DAE708B5FFF79AFF044843
:10051000042100F067FA034B01225A7108BD00BFA5
:100520007C23000000000020037813F0040216D0A2
:1005300003F00303012B03D0022B09D001207047E5
:100540000A6800880232C0F3831002440A60F5E7AB
:100550000B684288023303EB92130B60EEE7104600
:10056000704700002DE9F04FDFF810A10F4685B06D
:100570000446861C0020154600F0E0FBDAF8042053
:100580003A60DAF8083003F580739B1A0AF21C47C8
:100590000AF583690AF21448B34219D30020002DEA
:1005A00068D004F00F039B0143F0050363F30F00D1
:1005B000DAF80430DAB2033233444AF82200002079
:1005C000CAF8043000F0BCFB012005B0BDE8F08F94
:1005D0000121384600F0D9FB484600F0EEFB4046CA
:1005E00000F0EBFBDAF808000090C0B203300AEB31
:1005F00080006946FFF798FF009B30BBDAB20AEB38
:100600008202D16801919A1C0133DBB20AEB8303A9
:100610000092D3F80CB001F00303012B22D0022B7F
:1006200015D08346404600F0CBFB10B1009BCAF8C2
:1006300008305946384600F0A8FBDAF80830DAF8F6
:10064000042003F580739B1AA6E7D8B2CEE7BDF865
:100650000630C3F3891303334FEA1B4B02EB9303BA
:100660000093DFE7BDF80430C3F383134FEA1B4B5D
:100670001344F5E7A40544F0060099E7340100208F
:10068000064B074810B500221A7000F0F8FD04462A
:1006900010B9044800F07AFE204610BD3401002055
:1006A0008C230000DC23000030B50A4C71B10A4AEB
:1006B0000A49121BD20800239A4201D1002030BD02
:1006C00031F82350854202D00133F5E7034654F850
:1006D0003300F4E72C2300007C23000000000020FE
:1006E000094B013903EBC000032909D8DFE801F009
:1006F0000A02040604207047007970474079704769
:1007000000207047022070472C2300007047000033
:10071000034BD3E90130C31A58425841704700BF18
:10072000340100202DE9FF41FFF7F2FF05460028C4
:1007300040F0E980754CC4F81804BFF34F8FA368EC
:100740000093DBB2033304EB83006946FFF7ECFE52
:10075000009B18B1D4F81824002A5AD0DAB2991C98
:10076000013304EB8202DBB204EB8303D268DB6863
:10077000029302F00303022B0192009154D1BDF8C1
:1007800006306348C3F38917502F3E4628BF5026D2
:1007900006F1080166F38F13C1F30901ADF80630C5
:1007A00000F085FD0546002800F0988000F0AEFDC1
:1007B0000023082201A9284600F0BAFD0099CB4386
:1007C000DBB20133C9B20331B6EB830F4FEA8302C8
:1007D00004EB810125D95FFA82F80823A6EB08060D
:1007E000284600F0A5FDF6B208F10803494903F0D8
:1007F000FC033246284600F09BFD009B033703EBC9
:1008000097070097D4F81834002B43D1D4F810641C
:1008100053E062689A4294D8A260284604B0BDE8CA
:10082000F08108233246E5E7012B57D1BDF80430AB
:100830003748C3F38311062928BF062161F38913C2
:10084000023101F00F018900ADF8043000F02FFDF6
:100850000546002842D000F059FD0023082201A9D6
:10086000284600F065FD0026BDF80420C2F383127F
:10087000B300964203F10803C4D200994A1CC9B2DE
:100880000331009204EB81010422284600F050FD60
:100890000136E9E7284600F03DFDFFF739FF80F01B
:1008A0000100C5B2B9E7F3685B7923B13368294623
:1008B0001B6830469847F3681E68002EF3D128461F
:1008C00000F028FD304600F039FAD4F818340BB99E
:1008D000009BA360002000F033FADEE7D4F8104458
:1008E00054B90D4B0D480E49C01AC008000440F021
:1008F000020000F05FF8D0E7236820469B68984725
:10090000E3681C68ECE7002587E700BF340100209E
:100910008C230000400100202C23000064230000F1
:10092000C42300002DE9F34704460E46924601A970
:10093000012218469946FFF715FE1C4F10B3019D82
:100940004FF00008AA1CC84508EB020125D1184841
:10095000002100F0F7F980F31000000440EA144091
:10096000E4006B1C04F03804DBB2EDB244F0010487
:1009700007EB8303033544EA881444EA8624D860ED
:1009800047F825403B781BB1FFF7CCFE0028FBD190
:10099000FFF7BCFE02B0BDE8F087C9B207EB8101EA
:1009A0005AF82830CB6008F10108CCE73401002068
:1009B0005005002000231A46FFF7B4BF07B50123F6
:1009C000019201AAFFF7AEFF03B05DF804FB07B583
:1009D000CDE9002302236A46FFF7A4FF03B05DF8C8
:1009E00004FB000030B50F4CD4F81024034600205F
:1009F000114631B9D96808714AB9C4F810340A608F
:100A000030BDC9680D79854206D00968F1E7D26822
:100A100014680C601360F3E701300A28E8D14FF046
:100A2000FF30EDE73401002038B5084B0125D3F83D
:100A300010441D7004B938BDE3685D712368204619
:100A40005B689847E3681C68F4E700BF3401002046
:100A500030B5C38885B004460D4633B1144A0092C0
:100A60001449154A284600F005FA217A05291DD0B7
:100A7000637A4BB1A088FFF733FE104B104953F84F
:100A80002020284600F0F6F9227A0E4BA08853F871
:100A9000222003920021FFF707FE039A0A4903462A
:100AA000284605B0BDE8304000F0E4B905B030BDDF
:100AB00008240000F0230000E82300007424000054
:100AC0000D240000982400001024000007B5034600
:100AD0000846197A052911D05B7A2BB1094A0A49CF
:100AE000019000F0C7F901980849019000F0C2F99F
:100AF000019803B05DF804EB00F0B1B9002AF8D01A
:100B0000F2E700BF082400000D2400004B25000080
:100B10002DE9F04385B01F460C9D002395F80C90FD
:100B20002B7306460C46904629463846FFF790FF41
:100B3000B8F1060F09D8DFE808F00412181F2833AF
:100B400040003146284600F095F9002229463846F3
:100B5000FFF7BCFF85F80C9005B0BDE8F083226874
:100B60003146284600F086F9EFE7D4E90023314604
:100B7000284600F07FF9E8E7A36800933146D4E9FE
:100B80000023284600F076F9DFE7E3680193A368C5
:100B900000933146D4E90023284600F06BF9D4E7EE
:100BA00023690293E3680193A36800933146D4E973
:100BB0000023284600F05EF9C7E7636903932369C1
:100BC0000293E3680193A36800933146D4E90023BC
:100BD000284600F04FF9B8E708292DE9F74F80467D
:100BE0000E4617461C463CD8002593F80C901D7302
:100BF00019461046FFF72CFFDFF888A0DFF888B011
:100C0000AE4231D918F805205946204600F032F995
:100C10000135082DF4D11949194DDFF870A020468F
:100C200000F028F94FF0000B5E4522D918F80B2090
:100C30007E2A05D81046019201F0F8FA019A00B90F
:100C40002E225146204600F015F90BF1010BBBF1A5
:100C5000080FE9D1012221463846FFF737FF84F813
:100C60000C9003B0BDE8F08F5146204600F002F929
:100C7000CEE72946204600F0FDF8E6E724240000F0
:100C800022240000202400001A2400002624000052
:100C90001FB50021039001AA44F20100CDE9011122
:100CA00000F004F805B05DF804FB000038B572B63A
:100CB000FFF7BAFEFFF736FD0028FBD1104B114CB1
:100CC000114D1249E41AE408240444F00100FFF72E
:100CD00071FED5F8F030DB0700D500BE0C4944F0BA
:100CE0000200FFF767FEBFF34F8FEA68094B02F47B
:100CF000E0621343EB60BFF34F8F00BFFDE700BF1F
:100D00002C2300006423000000ED00E0AC24000070
:100D1000B82400000400FA0572B6024A13680133D1
:100D200013607047EC050020034A1368013B136011
:100D300003B962B6704700BFEC050020FFF7ECBFB7
:100D4000FFF7F2BF10B5034653E8000F0A4643E829
:100D5000002494F0000FF7D110BD10B5034653E8FE
:100D6000002F42EA010043E8000494F0000FF6D19E
:100D700010BD10B5034653E8000F00EA010243E836
:100D8000002494F0000FF6D110BD10B5034653E8CF
:100D9000002F02EB010043E8000494F0000FF6D1AD
:100DA00010BD10B5034653E8002FA2EB010043E845
:100DB000000494F0000FF6D110BD0121FFF7CDBF64
:100DC0000021FFF7D6BF10B590B1D0E9012301682B
:100DD0009B1ADBB20A60013BDBB2FF2B026802D137
:100DE0000020107110BD11684C1C14600B70F2E7EC
:100DF0000E20F7E738B504460020FFF79FFF226872
:100E000063681168994213D9481E106011F8013CBB
:100E1000E568218A01FB0355A36811791B1ADBB22F
:100E2000994200D213710020FFF78AFF284638BD8F
:100E30000025F8E738B5054600200C46FFF77EFF91
:100E40002A681368591C1160E968641A298AB4FB7E
:100E5000F1F41C70BDE838400020FFF771BF8268D4
:100E600010B504462AB14369016800699847002318
:100E7000A36010BD0EB403B5039921B104AB01AA60
:100E8000019300F06FF802B05DF804EB03B0704717
:100E9000826830B40468551C8560A154D0E90132E1
:100EA0009A4202D330BCFFF7DABF30BC7047000073
:100EB0002DE9F84F9846DDE90A43154682460F466C
:100EC0000A464FF00109AA420FD2C14538BFC146B8
:100ED00013F0010B01D16CB900240126B8F1010F08
:100EE0001BD908F1FF386E43F8E709F10109B2FB9D
:100EF000F5F2E8E79B070ED5B8F1000F0CBF3026DE
:100F00002026A145E9D2013C31465046FFF7C0FFFB
:100F1000002CF6D1E0E72026F3E7B7FBF6F39D427D
:100F2000E1D9DFF83C80B7FBF6F3504618F8031020
:100F300006FB1377FFF7ACFF3346AB42B6FBF5F683
:100F4000F1D2BBF1000F02D00CB1A14501D3BDE835
:100F5000F88F20215046013CFFF79AFFF4E700BFCD
:100F6000C52400002DE9F74F05461746884600299D
:100F700000F03E8118F8011B49B92B7B002B00F0D3
:100F80003781284603B0BDE8F04FFFF768BF252939
:100F900040F0B780002698F800302D2B424608F12B
:100FA000010823D0302B24D02B2B25D000242A2B32
:100FB00002F1010123D13B681A1D1B683A601C44F1
:100FC0000A4613782E2B26D101324FF0000A104624
:100FD00010F8011BA1F1300CBCF1090F1DD80A2338
:100FE00003FB0A13A3F1300A0246F0E746F00106BC
:100FF000D1E746F00206CEE746F00406CBE711F84B
:10100000013CA3F130000928DBD80A2202FB04349A
:10101000303C0A46CBE74FF0000A12F8011B01F002
:10102000FB0068289046F8D0782909D86F290CD899
:10103000632962D022D8252963D0582900F08880FE
:1010400098F80030002B95D197E770390829F7D828
:1010500001A353F821F000BFCB11000041100000A4
:101060004110000061110000411000003F1100001C
:10107000411000004110000051110000642901D00E
:101080006929DDD13A68D2F80090111D89EAE97228
:101090003960A2EBE9724FF0010B092A35DCD34528
:1010A00038BFD3462CB1B9F1000F01DB720700D570
:1010B000013CB30702D5BAF1000F03D0F00701D409
:1010C0004CBB0024B9F1000F2DDAC9F100092D2124
:1010D0002846FFF7DDFE06F00302022A04D1BAF12A
:1010E000000F01D11CBB0024CDE9004653460A2263
:1010F00049462846FFF7DCFEA2E73B681A1D19782F
:101100003A602846FFF7C4FE9AE70A230BF1010B69
:10111000B2FBF3F2C1E7A345D4D220212846013C1B
:10112000FFF7B6FECCE77107D5D52B21D0E7A34555
:10113000DAD230212846013CFFF7AAFED2E739680F
:10114000CDE900460A1D3A6053460A220968D0E7F5
:1011500039680A1D3A60CDE9004653461022F5E78A
:101160003B681A1D3A6016F00106D3F8009024D1AE
:10117000B9F1000F03D0484601F0A8F80646B44282
:101180001DD809F1FF3919F8011F00293FF458AFA4
:101190002846FFF77DFEF6E728460136FFF778FE82
:1011A00019F806100029F7D1A642BFF449AF202153
:1011B0002846013CFFF76CFEF6E70026F0E7202109
:1011C0002846013CFFF764FED9E73B681A1D3A60E8
:1011D000302128461C68FFF75BFE78212846FFF780
:1011E00057FE00220823CDE900322146102280E775
:1011F00003B0BDE8F08F00BF2DE9F84FB0F806A0AE
:101200004579D2F800B09DF828900AFB05F5043D19
:1012100088460BEB0301A94203F1040488BFA5EB48
:10122000030BB4FBFAF607460AFB1644C2F800B0FB
:101230004EB9AAEB04055D4528BF5D46BBF1000F22
:1012400004D1BDE8F88F3F68013EF1E7043408EBB4
:1012500006003C442A46B9F1000F0DD02146ABEB05
:10126000050B00F0E8FFDA452E443F6855464FF085
:10127000000428BF5D46E1E701462046EFE7FFF79F
:10128000A2BDF8B546790146721E05460023934279
:101290002D6803D30024A64202D8F8BD0133F6E737
:1012A0000F682846FFF7C6FD01343946F3E72DE9FC
:1012B000F843068ACD1C0746FFF79CFD043E3544E3
:1012C0000446B5FBF6F5F0B14FF48073EDB28380C0
:1012D000C680013D076081464FF00008A84512D244
:1012E0003846FFF787FD064648B1637901336371DD
:1012F00008F10108C9F8000007608146EEE72046C2
:10130000FFF7BFFF34462046BDE8F88301210430D3
:10131000FFF73BBD10B5012104460430FFF741FD46
:10132000C0B220B92046BDE81040FFF7AABF10BDEB
:101330001FB503920022009203AAFFF75DFF05B0DC
:101340005DF804FB1FB503920122009203AAFFF788
:1013500053FF05B05DF804FB08B50020FFF7EEFC75
:10136000F1EE103A23F09F03E1EE103ABFF35F8FE6
:10137000054B4022C3F884210020FFF7E1FC20BF89
:1013800040BF20BF08BD00BF00E100E0836800222D
:101390005A60C3E904229A60DA601A60704700005C
:1013A00038B5074C051E04F1080318BF1C46236816
:1013B0002BB11A6822605B6828469847F7E738BD6A
:1013C000F805002020B9054B01225A70FFF7E8BF4D
:1013D000012802D1014A9070F8E77047F00500201B
:1013E00038B50C4C23789BB90B486360A36023612C
:1013F000E36000F049F8054600F052F8012323703D
:10140000064BD3F800340BB10123A370284638BD36
:101410008525F5E7F0050020C51300000000014018
:1014200038B5134CA378054603F0FF0073B115B12E
:101430006B68012098470020FFF780FCE3680133C8
:10144000E3600020BDE83840FFF77ABCFFF776FC88
:1014500025B1226913463BB92A602561E368002B58
:10146000ECD100F02FF8E9E79D42F7D01B68F2E7D6
:10147000F005002000F18040002382B00360036883
:101480000193019B02B07047044A137923B90121EB
:1014900010601171184670478520704704060020BF
:1014A000074B1A68D20704D4C02283F80023012214
:1014B0001A604FF080430122C3F81825704700BF1F
:1014C00000E100E008B54FF48270FFF7D3FF4FF062
:1014D00080430222C3F8042301229A6008BD000061
:1014E0004FF0804210B5D2F8003153B14FF4807004
:1014F000FFF7C0FF0123C2F808330B4B00201B6825
:1015000098474FF08042D2F8043163B14FF48270B3
:10151000FFF7B0FF0223C2F80833034BBDE81040C9
:101520001B680120184710BD04060020014B1B68F2
:10153000184700BF0C06002000F1804000F5E04095
:10154000002382B0036003680193019B02B07047DF
:10155000F0B5524B524CD3F8043185B0002B3DD03E
:1015600094F82E204FF48270FFF7E6FF2AB394F828
:101570002F3013BB494AD2F80031002B32D04FF440
:101580008070FFF7D9FF638B94F82D00834250D908
:1015900021891B1A9BB289B26383CB1A616801EB64
:1015A0004303C2F82C36C2F830064FF48270FFF7BE
:1015B000C3FF3A4B01225A6014E063680293238907
:1015C000ADF80C30E36800218DF8041033BB2374B0
:1015D000236801A89847002384F82F3094F82E3010
:1015E000002BC7D12D4BD3F810315BB14FF488706D
:1015F000FFF7A2FF0023237402238DF8043001A813
:1016000023689847254BD3F81431EBB14FF48A7017
:10161000FFF792FF0023237405B0F0BD208B608399
:1016200063602081E160002AD2D11C4B01221A6044
:10163000CEE7BAD1E368012184F82F1013B100215D
:101640006183AEE76383B0E766694FF00047012529
:10165000002EE1D0B6FA86F227FA02F34632920063
:1016600026EA030602F1804303F5E0431B68002BE2
:10167000EED01046A2F58C72FFF75EFFD30882F021
:101680000402C2F380028DF808308DF804502368FC
:101690008DF8092001A89847DAE700BF00700040E4
:1016A0001406002038B5204A92F82C300446002B4E
:1016B00037D111601D490078C1F8F0056078C1F894
:1016C000F4050125E078137482F82D30536182F817
:1016D0002F306FF0004382F82E0082F82C504FF428
:1016E0008270C1F80833FFF727FF4FF48070FFF7CF
:1016F00023FF4FF48A70FFF71FFFA3780C485B01AC
:10170000DBB280F80733802303600223C1F804337F
:1017100092F82E300BB1C1F80453C1F800550020E7
:1017200038BD0820FCE700BF140600200070004010
:1017300000E100E030B5224B1A7C002A3ED100F1D6
:101740000C0403EB4402127922B993F82D200132E4
:1017500083F82D2003EB4403CA790C7A8D781A7133
:101760005C714B782D021B0105F4E06503F030033A
:101770002B430D7805F003052B43CD782D0305F49D
:1017800080552B430D792D0405F4E0252B434D792D
:1017900089792D0505F48015090601F080712B4328
:1017A0000B43010101F1804101F5E0410020C1F846
:1017B0001835C1F81445C1F8102530BD1120FCE7DB
:1017C0001406002070B5264A264B05461220C2F8A2
:1017D00008031C7C022C03D1C2F80403112070BD45
:1017E000187C01281CD1D86818B10223C2F8043330
:1017F000F4E7DD60198393F82E305BB9D2F800313D
:10180000002BFBD04FF48070FFF796FEC2F82C56E9
:10181000C2F83016124B0222C3F804230020DEE780
:10182000022093F82E40C2F80403012600201E7403
:101830005D601981D8603CB1598393F82D30C2F8AE
:101840002C56C2F83036CAE7C2F82C564FF48070D6
:10185000C2F83016FFF770FE16602046BFE700BFE3
:101860000070004014060020074B197C0129CAB201
:1018700008D193F82E00054B10B11A600020704774
:101880005A6070470820704714060020007000401E
:101890000023435082B043580193019B02B070472C
:1018A000F0B51A4C43791A4D44F8232003EB430357
:1018B000EB5C43BB90F904408B7802795B01002C10
:1018C000DBB21BDB134E371987F8003301236409A1
:1018D00002F01F0203FA02F246F8242003680A8885
:1018E000C3F8082543790879C97803EB4303EA185C
:1018F000507091700122EA540020F0BD064C02F0B5
:101900000F02A354EAE70820F7E700BF48060020CB
:101910004406002000E100E014ED00E0036801222D
:101920001A604379024A03EB43030221D154704702
:10193000440600202DE9F04105464FF4803400684C
:101940001C4F8C40C0F84843C0F8084395F805C0C8
:101950000CEB4C063E4422F07F4296F8018001F5E4
:10196000A8764FEA4C0E40F82620B8F1000F11D0AF
:10197000D0F80485F4446744A8EB0206904538BFCC
:1019800006F1FF16BA7838BF06F57F46B24201DD90
:101990000D200CE03BB15031890089B2FFF778FF90
:1019A0002B68C3F804432B680020C3F84443BDE808
:1019B000F08100BF440600202DE9F041224E234F64
:1019C000DFF88C8000244FF48035D7F80433A6F577
:1019D00080412B4289B20CD0336853B1C7F84853C9
:1019E0003846C7F80853FFF753FFD8F80030E0B285
:1019F00098470134042C4FEA450506F10406E4D16A
:101A00001248D0F80433DA070AD5D0F800313BB1D8
:101A10004FF48071FFF73CFF0D4B20461B68984741
:101A20000A48D0F804339B070CD5D0F804314BB1E9
:101A30004FF48271FFF72CFF054BBDE8F0411B68A6
:101A400005201847BDE8F0814041024000400240B7
:101A500048060020202806BF0020044B4FF0A0437A
:101A600000F5E070032243F8202070470003005087
:101A7000012303FA00F04FF0A043C3F80C057047B0
:101A8000012303FA00F04FF0A043C3F808057047A4
:101A9000024608B5D3074FF003000FD4FFF7E8FF65
:101AA00091074FF004000CD4FFF7E2FF53074FF00B
:101AB000050009D4BDE80840FFF7DABFFFF7E0FFF3
:101AC000EEE7FFF7DDFFF1E7BDE80840FFF7D8BF1D
:101AD0002DE9F8432DED048B07780546002F48D1FA
:101AE0004FF0A0424F4ED2F8043596F80080D9430B
:101AF00001F4804103F48043C2F80815C2F80C35A4
:101B0000B8F1000F5CD06A68DFED476AB2F90020D7
:101B1000707807EE102AB8EEC77A06EB8003C7EE9E
:101B2000267A0130C0B2072870709FED407A67EEC8
:101B3000877A9FED3F7A67EE877AB1EE087A67EE93
:101B4000877AC3ED017A18D8FFF7A2FF394B4FF41B
:101B5000207043F001039847FFF786FE6868012173
:101B6000FFF730FE08B1FFF793F8334A13680133EB
:101B70001360BDEC048BBDE8F8833048304C31492C
:101B8000DFF8CC90241AE408240444F0030420462F
:101B9000FEF710FF06F10408F8EC017AFDEEE77A93
:101BA0003A4617EE903A494620460137FEF70FFFB6
:101BB000082FF1D10620FFF75BFF00233370CDE73C
:101BC0001E481F4C1C4B20491A689FED178ADFEDF9
:101BD000178A9FED179A241AE408240444F003049A
:101BE0002046FEF7EBFE2B896A689845B6DA32F993
:101BF0001820164907EE902AB8EEE77A2046C7EE7D
:101C0000087A08F10108B1EE087A67EEA87A67EE63
:101C1000897A67EE877AFDEEE77A17EE903AFEF75B
:101C2000D6FEE0E75406002000F07F459A99193F60
:101C300000007A44902500004C0600202C23000070
:101C400064230000072500002A250000412500002C
:101C50001825000038B5044688BB0620FFF710FFA2
:101C60001748184B18491B1ADB081B0443F00300E4
:101C7000FEF7A0FE154B01251D802046FFF708FF4B
:101C8000134B4FF420702B439847FFF7EDFD4FF0B7
:101C9000A0421048D2F80435D94301F4005103F4AE
:101CA0000053C2F80815C2F80C3521462B462022F5
:101CB000FFF740FE08B1FEF7EBFF074B9D6038BD14
:101CC0002C230000642300004E2500005406002051
:101CD0009025000098250000004002401FB5012318
:101CE0008DF8033002238DF80030002406231A49B2
:101CF0008DF8014068468DF80230FFF7D3FC08B13B
:101D0000FEF7C6FF02238DF8083001A90123002049
:101D10008DF807408DF806408DF809408DF80B309E
:101D20008DF80C408DF804408DF80540FFF702FD5A
:101D300008B1FEF7ADFF09480121FFF743FD08B1E7
:101D4000FEF7A6FF06480121FFF73CFD08B1FEF7AC
:101D50009FFF04B010BD00BFD11A00005006002044
:101D60005206002008B50320FFF774FE0420FFF799
:101D700071FE0520FFF76EFE0620FFF76BFE4FF0A9
:101D8000A0430222C3F808270620BDE80840FFF759
:101D90006FBE002108B50846FEF772FC08B1FEF7D9
:101DA00077FFBDE80840FEF7AFBB000013B5002188
:101DB00001240131202948D14FF0A0434FF4F032E3
:101DC000C3F808250022C3F80C254FF080430122F8
:101DD000C3F87825FFF7DDFFFFF7C4FF1F4B20484E
:101DE0002049C01AC008000440F00300FEF7E2FDDD
:101DF000FFF7F6FA08B1FEF74BFF0020FFF710FBE4
:101E000040F2FF33184A1948ADF800306946FFF731
:101E100047FD08B1FEF73CFF1448012320220021B2
:101E2000FFF788FD08B1FEF733FF1048FFF776FD96
:101E3000FFF754FFFEF776FC0028FBD1FEF772FC9B
:101E40000028FBD1FFF788FAF4E704FA01F313F452
:101E5000F03FAED00846FFF7FDFDAAE72C230000B7
:101E60006423000068250000551C00009825000030
:101E70000369C26893429CBF80681B18013B981A93
:101E800070472DE9F843D0E902940546A9EB040810
:101E90004068904520440F46144404D900F0CBF923
:101EA000EC60BDE8F8834246A4EB090400F0C3F9F6
:101EB0006868224607EB0801F0E72DE9F843C5689A
:101EC0000646894617464FF000083469B3687068C3
:101ED000A54228BFE418013C621B5C1BBC4228BF22
:101EE0003C46944228BF144649462844224600F006
:101EF000A2F9B3682544AB4208BF00253F1BA044AC
:101F0000A144F560E1D14046BDE8F88310B5114C1D
:101F1000114AA2610223C4E90433104BE361A264B5
:101F20004FF400730E4A0F492362E264002310222B
:101F3000E01DA3626362E362A3656365E3652265F6
:101F400000F0A2F90849204600F09EF92023A37171
:101F500010BD00BF78060020A0250000000700206B
:101F6000F0060020A9250000AD25000070B5164B35
:101F7000182400FB04451D4404FB00331646DC6AAC
:101F8000012C0ED0022C18D0E4B92846FFF770FFC0
:101F9000864204D832462846FFF773FF344620466F
:101FA00070BD2846FFF764FF8642344628BF0446CA
:101FB00022462846FFF765FFF1E72846BDE8704056
:101FC000FFF77BBF0024EAE778060020FFF79EBFFB
:101FD0004FF08053D3F83001A0F10D03584258411F
:101FE00070470000024AD2F80034002BFBD0704743
:101FF00000E0014010B5FFF7EBFF40B14FF0804328
:102000000022C3F80C21C3F81021C3F83825FFF7CC
:10201000DFFF002846D04FF08052514BD2F8041415
:10202000C3F82015D2F80814C3F82415D2F80C14FC
:10203000C3F82815D2F81014C3F82C15D2F81414CC
:10204000C3F83015D2F81814C3F83415D2F81C149C
:10205000C3F84015D2F82014C3F84415D2F824145C
:10206000C3F84815D2F82814C3F84C15D2F82C142C
:10207000C3F85015D2F83014C3F85415D2F83414FC
:10208000C3F86015D2F83814C3F86415D2F83C14BC
:10209000C3F86815D2F84014C3F86C15D2F844247C
:1020A000C3F87025FFF794FF48B14FF08043D3F891
:1020B0000024D20744BF6FF00102C3F80024294A6C
:1020C000D2F8883043F47003C2F88830BFF34F8FE2
:1020D000BFF36F8F4FF08053D3F830210D2A0ED10C
:1020E000D3F83431022B02D81F4AD35C3BB14FF0F6
:1020F0001023D3F808224FF08043C3F858254FF03F
:102100001023D3F80022002A03DBD3F80432002B7B
:1021100022DA164901234FF01020C1F804351224A9
:10212000FFF760FFC0F80042FFF75CFFC0F8044211
:10213000FFF758FF0023C1F80435FFF753FFBFF343
:102140004F8F08490A4BCA6802F4E0621343CB6020
:10215000BFF34F8F00BFFDE7064B074A1A6010BD63
:1021600000C0004000ED00E0B425000000E00140A8
:102170000400FA05080000200090D0037F2805D84D
:10218000034B185C034B5B5C1840704700207047A2
:10219000C425000044260000A0F16103192B98BF5C
:1021A00020387047A0F14103192B98BF20307047A9
:1021B0007F2805D8034B185C034B5B5C18407047C5
:1021C00000207047C425000044260000A0F16103F0
:1021D000192B98BF20387047A0F14103192B98BFE5
:1021E000203070477F299ABF017001206FF02E00C8
:1021F00070475AB10A787F2A0AD800B102600021DC
:1022000019605960501A18BF0120704700207047AC
:102210006FF02E007047000008B5034B5B689B68A9
:102220001B68984708BD00BF0C00002008B50921B5
:10223000FFF7F2FF08BD844640EA010313F0030FE5
:1022400018D18446202A0BD32DE9F007B1E8F8070E
:10225000A0E8F807A2F12002202AF7D2BDE8F00793
:10226000042A07D351F8043B40F8043BA2F10402CE
:10227000042AF7D2002A05D011F8013B00F8013BEF
:10228000013AF9D160467047024610F0030F16D1AB
:1022900011F0030F13D12DE9F0004FF001374FF08B
:1022A000803351F8044BA4EB070525EA04051D40D3
:1022B00002D142F8044BF4E7A1F10401F0BC11F89B
:1022C000013B02F8013B002BF9D1704700F10101FD
:1022D00010F0030F11D010F8012B002A23D010F0BA
:1022E000030F0AD010F8012B002A1CD010F0030FA6
:1022F00003D010F8012B002A15D02DE970004FF003
:1023000001324FF0803350F8044BA4EB020525EA6C
:1023100004051D4000D1F6E7A0F1040070BC10F8E0
:0C232000012B002AFBD1A0EB010070474C
:10232C00E424000000000000EA240000000000008B
:10233C00EE24000000000000032500000000000057
:10234C00F224000000000000F8240000000000004F
:10235C00FD24000000000000D52300000000030352
:10236C00DE24000000000000D52400000000000066
:10237C00A823000000000000B4230000000000208F
:10238C00640000202C010020340100206C0000208F
:04239C001800000025
:1023A0000338FDD870470000D50300004104000049
:1023B000D10300007274745F6C6F675F6261636B5E
:1023C000656E64004261636B656E647320666C7554
:1023D000736865640061707000000000540500209F
:1023E0007F000000D40500201B5B313B33316D00C2
:1023F00025734C6F67732064726F7070656420285A
:1024000025642925730D0A001B5B306D00257300C0
:102410003C25733E2025733A200020253032780079
:10242000202020007C002563001B5B313B33306D96
:10243000001B5B313B33326D001B5B313B33336D33
:10244000001B5B313B33346D001B5B313B33356D1F
:10245000001B5B313B33366D001B5B313B33376D0B
:10246000007761726E696E6700696E666F00646501
:10247000627567000824000029240000E82300009A
:1024800031240000392400004124000049240000C8
:10249000512400005924000000000000B224000074
:1024A00061240000692400006E240000466174610C
:1024B0006C206572726F720053797374656D20724F
:1024C000657365740030313233343536373839410D
:1024D00042434445467077725F6D676D7400636C6C
:1024E0006F636B00434C4F434B00505049005052B8
:1024F0005300534141444300554152540055415209
:10250000544500525443004D5558204144432052F5
:102510006573756C74733A004368616E6E656C2008
:1025200025643A202564206D560041444320657699
:10253000656E74206E756D6265723A2025640D0AB1
:1025400000256420282564206D56290D0A004D556C
:102550005820414443204D6561737572656D656E09
:10256000742D2D2D2D2D2D005341414443204C6FB2
:102570007720506F776572204578616D706C652E9D
:10258000000000000000000000000000000000004B
:102590000338FDD8704700000040024024000400CA
:1025A0005465726D696E616C005254540053454716
:1025B000474552000000010043000000504F5349BE
:1025C00058000000202020202020202020682828DB
:1025D00028282020202020202020202020202020EB
:1025E0002020202048101010101010101010101073
:1025F0001010101084848484848484848484101053
:10260000101010101081818181818101010101016F
:10261000010101010101010101010101010101109B
:102620001010101010828282828282020202020244
:10263000020202020202020202020202020202106C
:102640001010102000070320041702010857104043
:1026500080000000B8250000BC260000D027000044
:1026600053756E004D6F6E005475650057656400BC
:1026700054687500467269005361740000000000E0
:102680004A616E00466562004D61720041707200E1
:102690004D6179004A756E004A756C00417567009E
:1026A000536570004F6374004E6F7600446563009D
:1026B00000000000414D00504D000000F4270000D4
:1026C000F0270000F0270000F0270000F0270000AE
:1026D000F0270000F0270000F0270000F02700009E
:1026E000F0270000FFFFFFFFFFFFFFFFFFFFFFFFDF
:1026F000FFFF000030270000602600006C2700006C
:1027000080260000B426000014270000C427000023
:1027100020270000256D2F25642F2579000000005B
:10272000256120256220256520255420255900009B
:1027300053756E646179004D6F6E646179005475F4
:102740006573646179005765646E657364617900CF
:1027500054687572736461790046726964617900C6
:102760005361747572646179000000004A616E758E
:10277000617279004665627275617279004D6172AD
:10278000636800417072696C004D6179004A756E32
:1027900065004A756C7900417567757374005365FF
:1027A0007074656D626572004F63746F626572006C
:1027B0004E6F76656D62657200446563656D626536
:1027C0007200000025483A254D3A255300000000CC
:1027D0007D21000099210000A5210000B121000009
:1027E000CD210000D9210000E5210000F3210000E7
:0827F000000000002E000000B3
:1027F80000000000FF0000000090D00354260000F5
:1028080054260000542600005426000054260000D8
:040000030000037581
:00000001FF
